S01800006275696C642F6D6963617A2F6D61696E2E73726563E5
S11300000C94A2010C94F9070C9403080C940D08A9
S11300100C9417080C9421080C942B080C945E0F74
S11300200C9435080C94C1010C94C1010C947D1BF3
S11300300C941B1D0C94C3070C94D9070C948007D3
S11300400C943A0D0C94EE130C94FC090C94C1011D
S11300500C94780A0C94C1010C94C1010C94C10154
S11300600C94CE070C94CB0B0C94AA0B0C94B50BEC
S11300700C94C00B0C94DE0B0C948D0B0C94C101EE
S11300800C949F0B0C94C1010C94C1017B14C814F3
S11300906315B115B715081624162A1662161D170E
S11300A040175417C518F81845196E19531A671ACA
S11300B0691A6C1ABC1A7314371B451B0763423642
S11300C0B79BD8A71A39685618AEBAAB558C1D3CE5
S11300D0B7CC5763BD6DEDFD753EF6177231BF00A9
S11300E00000803F08000000BE922449123EABAAE3
S11300F0AA2ABECDCCCC4C3E00000080BEABAAAA3E
S1130100AA3E00000000BF000000803F0000000085
S113011000084178D3BB4387D1133D190E3CC3BDBE
S11301204282AD2B3E68EC8276BED98FE1A93E4C6B
S113013080EFFFBE01C4FF7F3F000000000000000D
S11301402110422063308440A550C660E7700881C6
S113015029914AA16BB18CC1ADD1CEE1EFF131123D
S1130160100273325222B5529442F772D662399316
S113017018837BB35AA3BDD39CC3FFF3DEE362248D
S1130180433420040114E664C774A44485546AA566
S11301904BB528850995EEE5CFF5ACC58DD553361D
S11301A0722611163006D776F6669556B4465BB7B6
S11301B07AA719973887DFF7FEE79DD7BCC7C448ED
S11301C0E5588668A7784008611802282338CCC906
S11301D0EDD98EE9AFF9488969990AA92BB9F55A7D
S11301E0D44AB77A966A711A500A333A122AFDDB56
S11301F0DCCBBFFB9EEB799B588B3BBB1AABA66C4D
S1130200877CE44CC55C222C033C600C411CAEEDA5
S11302108FFDECCDCDDD2AAD0BBD688D499D977E5C
S1130220B66ED55EF44E133E322E511E700E9FFFF5
S1130230BEEFDDDFFCCF1BBF3AAF599F788F8891AB
S1130240A981CAB1EBA10CD12DC14EF16FE180108F
S1130250A100C230E3200450254046706760B98392
S11302609893FBA3DAB33DC31CD37FE35EF3B102DF
S11302709012F322D2323542145277625672EAB5A2
S1130280CBA5A89589856EF54FE52CD50DC5E2342F
S1130290C324A01481046674476424540544DBA772
S11302A0FAB79987B8975FE77EF71DC73CD7D3267F
S11302B0F2369106B01657667676154634564CD902
S11302C06DC90EF92FE9C899E9898AB9ABA94458CF
S11302D0654806782768C018E1088238A3287DCBD2
S11302E05CDB3FEB1EFBF98BD89BBBAB9ABB754A1F
S11302F0545A376A167AF10AD01AB32A923A2EFD62
S11303000FED6CDD4DCDAABD8BADE89DC98D267C6E
S1130310076C645C454CA23C832CE01CC10C1FEFB1
S11303203EFF5DCF7CDF9BAFBABFD98FF89F176EBE
S1130330367E554E745E932EB23ED10EF01E0008EA
S11303401C18141011241FBECFEFD0E1DEBFCDBFA7
S113035011E0A0E0B1E0E8EAFBE400E00BBF02C07A
S113036007900D92A232B107D9F719E0A2E2B1E0E9
S113037001C01D92A133B107E1F70E94A91D0C949D
S1130380D3250C9400008FB7F894992708958FBF54
S11303900895282F9FB7F894E82FFF27EA59FE4FB6
S11303A080818F3F81F4E0912409E21771F40BC03E
S11303B02093D90804C0FF27EA59FE4F20832093D5
S11303C0240920E007C025E005C08091D9088F3FAB
S11303D091F7EECF892F99278FBF822F9927089500
S11303E01F931FB7F89480912009882341F48FE06C
S11303F00E94C901882319F481E080932009812F88
S113040099278FBF1F910895382FFA01422F2D315C
S113041018F082E090E008956683872F99278583FA
S1130420338721878091330190913401892B19F00E
S113043085E090E008952FB7F894332785E0809302
S1130440360110923701F0933201E093310182E0DA
S113045090E090933401809333011092390110920B
S11304603801445F409335012FBF8FB7F894282F8C
S1130470332780917E028A3011F42FBF19C02FBF19
S11304809FB7F8948091CF01882311F020E006C033
S113049081E08093CF011092D00121E0892F992728
S11304A08FBF222329F00E94F00180E090E008959C
S11304B0109234011092330181E090E00895CF93BB
S11304C0DF93DB01FB0135968183892F9927EB01AB
S11304D08D8384E686838091F8019091F901892BBC
S11304E019F085E090E029C07093F9016093F80158
S11304F0448380911301882319F480E090E01DC0A7
S11305008681EB016D817727762F6627218133273A
S1130510622B732B10921301242FAD010E9404024D
S11305209927282F882339F081E0809313011092B2
S1130530F9011092F801822F9927DF91CF91089544
S11305408FB7F89499272BB331E023272BBB8FBFA8
S1130550089580917E028A3021F48091A60184302E
S113056021F081E080932E01089581E10E94C90168
S113057010922E0108952FB7F89433278CB95E9A00
S11305802FBF0895FC016115710519F481E090E015
S113059008958091C7019091C801892B19F085E0D5
S11305A090E0089570937E0860937D08F093C801ED
S11305B0E093C7011092A8011092A70181E08093F3
S11305C0A9015E9A569A808121E030E03093A80117
S11305D02093A7010E94BB0280E090E008958FB7AA
S11305E0F894992720913F012E7F20933F012EE715
S11305F0209381018FBF61E070E081E891E00E9467
S1130600C20299270895FC0182819927582F442713
S113061081819927482B592BCA01892F99278695BF
S11306208695837090708230910559F083309105DE
S113063059F0892B19F420E030E008C02CE93FEF91
S113064005C022E030E002C028E030E0CA0184E0C6
S1130650989F812D992711248230910559F0833078
S1130660910559F0892B19F480E090E008C08CE9D9
S11306709FEF05C082E090E002C088E090E0280F80
S1130680391F2A5F3F4FCF01820F931F0895282FF0
S11306909FB7F894662349F0E82FFF27E957FD4FE9
S11306A08081882311F021E006C0E22FFF27E9575B
S11306B0FD4F608320E0892F99278FBF822F9927D0
S11306C00895E82F8FB7F894282F332790E0FF2759
S11306D0E957FD4F8081861709F491E02FBF892FD8
S11306E099270895882311F06E9A08956E980895B5
S11306F0882311F06F9A08956F98089580E00E94FE
S11307007203BA9ABB98B99AB89A6C9A80E00E941C
S113071078036B986A9881E00E947203709A8DB195
S11307208C7F8DB908950F931F93CF93DF93182F68
S11307308FB7F894C82FDD270C2F61E080E00E946A
S11307404703882321F0CFBF85E090E024C0809147
S113075005018823A1F480912701823081F409C026
S113076082E080932701109205010E947E03B89ACB
S1130770C0981093020180E00FBF99270CC08091AC
S11307802701882369F38FB7F89499271092870279
S11307908FBF81E0F1CFDF91CF911F910F91089529
S11307A01F93182F81E00E9472031FB9779BFECF1D
S11307B08FB199271F9108958F929F92AF92BF9204
S11307C0CF92DF92EF92FF920F931F93CF93DF9319
S11307D08FB7F8949927C090E808D090E9088090E2
S11307E0770290907802C091F601D091F7012091A0
S11307F0470130914801EAE0AE2EB12CAC0EBD1E8B
S11308002A153B0508F459018FBF7401EC0EFD1E37
S113081086010C0F1D1F14C0C114D10419F0F80176
S1130820808101C080E00E94D0038114910411F002
S1130830F701808321960894E11CF11C0F5F1F4F80
S1130840C5010197C817D90738F381E00E947803DE
S11308509FB7F894C114D10431F0CC0EDD1EF6011B
S113086080818FB901C01FB8D093F701C093F601FE
S1130870892F99278FBF80E090E0DF91CF911F915E
S11308800F91FF90EF90DF90CF90BF90AF909F902B
S11308908F9008952FB7F8943327509348014093CD
S11308A047019093E9088093E80870937802609375
S11308B077021092F7011092F6012FBF452B29F011
S11308C08FB10E94DC039927089589E00E94C90131
S11308D080E090E008958FB7F894992710928902E8
S11308E08FBF08957FB7F89462B720914A01309181
S11308F04B0140914C0150914D0106B601FE0FC0D1
S113090081B792B7280F311D411D511D2F5F3F4FF5
S11309104F4F5F4F290F311D411D511D04C0260F3C
S1130920311D411D511D872F99278FBFCA01B90160
S11309300895EF92FF920F931F93E0910E02E1FF4F
S11309402BC0209106023091070240910802509179
S11309500902E0900A02F0900B0200910C0210913F
S11309600D02621B730B840B950B6E157F058007BC
S1130970910790F0E0FF04C0ED7FE0930E020CC0FD
S11309802E0D3F1D401F511F209306023093070276
S113099040930802509309028DE00E94C9011F91FF
S11309A00F91FF90EF900895DF92EF92FF920F93D3
S11309B01F938FB7F894282F3327D22E91B782B77D
S11309C046B7981711F041FF02C02FBF6AC080914B
S11309D0ED018823E1F10E947204E0908302F0901B
S11309E08402009185021091860220915F0130916A
S11309F0600140916101509162016E197F09800B81
S1130A00910B621773078407950720F01092ED018C
S1130A1071E01EC02E0D3F1D401F511F80914A01E1
S1130A2090914B01A0914C01B0914D01281B390BC1
S1130A304A0B5B0B273E31054105510540F4822FDB
S1130A40223010F070E005C070E082E002C070E077
S1130A5086EE682F615000B601FCFDCF82B768179F
S1130A6009F46F5F20914A0130914B0140914C0190
S1130A7050914D01DA01C9010196A11DB11D860FE6
S1130A80911DA11DB11D82179307A407B50710F48A
S1130A90622F609561BFDFBE772319F08CE00E945E
S1130AA0C9011F910F91FF90EF90DF900895AFB7A8
S1130AB0F894BB27E1E0E093ED0160938302709327
S1130AC08402809385029093860220935F01309381
S1130AD060014093610150936201AFBF0E94D4044E
S1130AE0089580E8809363011092A5011092DD08B7
S1130AF01092D808109285010895CF93DF93FC01DA
S1130B0015A6DC019E96ED011B821A82198280E8EB
S1130B1086A7DF91CF9108952F923F924F925F92D3
S1130B206F927F928F929F92AF92BF92CF92DF92F9
S1130B30EF92FF920F931F93CF93DF93CDB7DEB75E
S1130B4028970FB6F894DEBF0FBECDBF2090B0013A
S1130B503090B1014090B2015090B30166247724E3
S1130B608824BEE4AB2EA3E8BA2ECC24DD24EE24E4
S1130B70FF2400E010E0222D332D442D552D662D49
S1130B80772D882D90E00E94272029833A834B8378
S1130B905C836D837E838F839887822E932EA42E0D
S1130BA0B52E2401350100E20E942521A22EB32E88
S1130BB0C42ED52EC301B201969587957795679576
S1130BC06A0D7B1D8C1D9D1D97FF05C09F776F5F70
S1130BD07F4F8F4F9F4F6093B0017093B10180930B
S1130BE0B2019093B30128960FB6F894DEBF0FBEFE
S1130BF0CDBFDF91CF911F910F91FF90EF90DF90C8
S1130C00CF90BF90AF909F908F907F906F905F90A8
S1130C104F903F902F9008958FB7F8946091FA0108
S1130C207091FB012CB53DB506B602FE04C06F5FA2
S1130C307F4F2CB53DB599278FBF88279927CB01C6
S1130C407727662744275527622B732B842B952BF4
S1130C500895EF92FF920F931F930E940C067B015D
S1130C608C012091BF013091C0014091C10150918C
S1130C70C2018091B9019091BA01A091BB01B091D8
S1130C80BC01820F931FA41FB51FE216F3060407CD
S1130C90150730F082179307A407B50758F005C06D
S1130CA082179307A407B507E0F5E816F9060A07C3
S1130CB01B07B8F59C01AD012E193F09400B510BE0
S1130CC0213060E8360760E0460760E0560768F1C7
S1130CD080E090E8A0E0B0E0E80EF91E0A1F1B1FB8
S1130CE0E092BF01F092C0010093C1011093C201D0
S1130CF080E090E8AFEFBFEFE80EF91E0A1F1B1F5C
S1130D0020503048404050402093B9013093BA01FC
S1130D104093BB015093BC0120E030E840E050E038
S1130D2014C020E030E040E050E08093BF01909395
S1130D30C001A093C101B093C2011092B9011092F5
S1130D40BA011092BB011092BC01A901B7012CB5E4
S1130D503DB5C9018E199F0903968417950720F0A4
S1130D60B9016D5F7F4F02C0640F751F6115710576
S1130D7011F461E070E0615070407BBD6ABD80E1B8
S1130D8086BF87B7806187BF1F910F91FF90EF9057
S1130D9008950F931F930FB7F89411276093BF0121
S1130DA07093C0018093C1019093C2012093B90153
S1130DB03093BA014093BB015093BC010E942906B1
S1130DC00FBF1F910F910895CF92DF92EF92FF9280
S1130DD00F931F93CF93DF938C01F62E6A01E22EBB
S1130DE08FB7F894C82FDD2760E080E00E9461038C
S1130DF0882321F0CFBF80E090E01EC0CFBF0F0D4D
S1130E00111D802F80680E94D003F82E1695079537
S1130E10802F807C0E94D0030E2D0AC0EE2DFF2768
S1130E20E01BF109EC0DFD1D80810E94D0030150EF
S1130E300023A1F78F2D9927DF91CF911F910F9157
S1130E40FF90EF90DF90CF90089597B79F7D97BF65
S1130E5090E296BF882319F08EB5806402C08EB5E7
S1130E608F7B8EBD87B7806287BF80E090E0089556
S1130E70AF92BF92CF92DF92EF92FF920F931F93A4
S1130E80CF93DF93CDB7DEB728970FB6F894DEBFC4
S1130E900FBECDBF20E070E0E0910001F0910101B0
S1130EA032E14DE65CE46FE4809101019E2F2896C7
S1130EB00FB6F894DEBF0FBECDBFDF91CF911F9167
S1130EC00F91FF90EF90DF90CF90BF90AF90089577
S1130ED08FB7F894282F3327922F80917E028A307F
S1130EE041F08091A601843021F02FBF89E090E089
S1130EF008959FBF80E10E94C90180E090E00895B9
S1130F001F920F920FB60F9211242F933F934F937A
S1130F105F936F937F938F939F93AF93BF93EF935D
S1130F20FF9383B783BF00B600FCFDCF81B7992739
S1130F300196AA27BB2720914A0130914B01409189
S1130F404C0150914D01280F391F4A1F5B1F2093FC
S1130F504A0130934B0140934C0150934D017894D6
S1130F600E94D404FF91EF91BF91AF919F918F9113
S1130F707F916F915F914F913F912F910F900FBE91
S1130F800F901F90189578941F920F920FB60F929E
S1130F9011240F900FBE0F901F90189578941F92F4
S1130FA00F920FB60F9211240F900FBE0F901F9047
S1130FB0189578941F920F920FB60F9211242F93C5
S1130FC03F938F939F932FB7F89433278091FA011F
S1130FD09091FB0101969093FB018093FA012FBF3E
S1130FE09F918F913F912F910F900FBE0F901F9063
S1130FF018951F920F920FB60F9211240F900FBEE7
S11310000F901F9018951F920F920FB60F921124F4
S11310100F900FBE0F901F9018951F920F920FB64E
S11310200F9211240F900FBE0F901F9018951F92CE
S11310300F920FB60F9211240F900FBE0F901F90B6
S113104018951F920F920FB60F9211240F900FBE96
S11310500F901F9018951F920F920FB60F921124A4
S11310600F900FBE0F901F9018951F920F920FB6FE
S11310700F9211240F900FBE0F901F901895EEE35E
S1131080F1E06927660FF11DE60FF11DC895982F51
S1131090802D3196C89590250895982F80913A0116
S11310A0882389F5992379F531E030933A018091C9
S11310B00C0180933B0120912F01822F817080933A
S11310C06401809111019091120190933D018093EC
S11310D03C018091300180933E0132273170267E9D
S11310E0E32FFF27EE0FFF1FE35FFE4F8081918107
S11310F09093120180931101232B20932F0184E1FB
S11311000E94C901089580912F0180FF02C08B7F46
S113111001C08D7F80932F0108950F931F93082F93
S1131120162F8091A6018130D9F0813038F08230B9
S113113009F44AC0833009F028C159C0002309F4D6
S113114058C110927708109276081092810210927A
S11311507F081092AA011092FD011092FC0139C17E
S1131160002309F046C18091FC019091FD010E9489
S11311703F089093FD018093FC0182E08093A601D7
S113118010937F08143409F000C125C18695869513
S113119003C080912F018695817009F0F6C080917B
S11311A02F01992311F0846001C0826080932F0184
S11311B080912F01877E886080932F0110923001E7
S11311C08FEF80930C0115C1002309F0DEC06093FA
S11311D0AA018091FC019091FD010E943F08909327
S11311E0FD018093FC0183E08093A60102C18091FC
S11311F081028F3F09F4C9C0002309F461C0823021
S113120008F4C3C0E0917608EE2309F4EBC04E2F36
S11312104150E42FFF27EA58F74F82819927382F4E
S11312202227442311F4E2E002C0E42FE150FF2717
S1131230EA58F74F82819927282B392B8091FC019A
S11312409091FD012817390709F09FC080E00E94A2
S11312504D083091AA018091EE012091EF01982F61
S11312609F5F963008F090E0921771F0E82FFF2707
S1131270E251FE4F32838F5F8093EE01863010F08F
S11312801092EE010E94F0011092770810927608F5
S113129094E09093A6011092810210927F0810921C
S11312A0AA011092FD011092FC0180913F018D7FF3
S11312B080933F0180912E01882309F49AC084C051
S11312C0823008F44EC0E0917708FF27EA58F74FC0
S11312D08281482F5527342F20912F01822F869504
S11312E086958695837099278130910519F0029728
S11312F0F9F40EC0277E206120932F01442311F4BA
S113130085E001C080E08093300130930C0110C06F
S113131080913001843360F4E0911101F091120165
S1131320E80FF11D4083809130018F5F809330017D
S113133080917708E82FFF27EA58F74F62818F5F83
S113134080937708833010F0109277087727809184
S1131350FC019091FD010E943F089093FD01809350
S1131360FC0180917608E82FFF27EA58F74F128393
S11313708F5F80937608833010F010927608809106
S113138081028F5F8093810234C01092770810929B
S1131390760814E01093A6011092810210927F083F
S11313A01092AA011092FD011092FC0180913F015C
S11313B08D7F80933F0181E00E944D0880912E0132
S11313C0882329F01093A6010E94A90212C00023C9
S11313D081F081E009CF80912F01982F917080FDD9
S11313E0D5CED7CE80917A089927382F222742E08C
S11313F01CCF1F910F9108951F920F920FB60F9259
S113140011242F933F934F935F936F937F938F9305
S11314109F93AF93BF93EF93FF935F9B3DC06CB1DA
S1131420E091FE01F091FF013097F9F080911E09DF
S113143090911F09E80FF91F6083019690931F098B
S113144080931E0920912809309129098217930756
S113145018F11092FF011092FE01809179028330FD
S1131460D9F057981092790217C06E3719F460E0DA
S113147081E010C080913F016D3721F48260809338
S11314803F010AC081FF05C08D7F80933F0180E248
S1131490682780E00E948D08FF91EF91BF91AF9182
S11314A09F918F917F916F915F914F913F912F9178
S11314B00F900FBE0F901F901895982F8D57823064
S11314C068F480913F01816080933F0180E2892725
S11314D0809380028DE78093810102C09093810103
S11314E061E070E081E891E00E94C20299270895CA
S11314F078941F920F920FB60F921124FF920F93BC
S11315001F932F933F934F935F936F937F938F9387
S11315109F93AF93BF93CF93DF93EF93FF93209168
S1131520A7013091A80180917D0890917E08281729
S1131530390780F4E091C701F091C801E20FF31F6D
S113154080812F5F3F4F3093A8012093A7010E9411
S1131550BB02CDC01092C8011092C7011092A9011C
S11315605698FFB6F89480913F0180FF0EC08E7F9D
S113157080933F01809180028093810161E070E05B
S113158081E891E00E94C202AFC080917E02843063
S113159009F48CC0853040F4823021F18330B8F5F1
S11315A0813009F09CC00DC0863009F48DC08630AE
S11315B008F483C0873009F48EC0883009F08FC0E6
S11315C091C08091BE010E945D0A082F83E0809340
S11315D07E026091BE0180912609909127090E94A4
S11315E03F0810C08091DC080E945D0A082F83E048
S11315F080937E026091DC088091260990912709EE
S11316000E943F08909327098093260966C0E091C1
S11316100102FF27EE0FFF1FE253FE4F80810E945D
S11316205D0A082F10910102C12FDD27FE01EE0F84
S1131630FF1FE253FE4F6081809126099091270994
S11316400E943F0890932709809326092091B801AE
S11316502F5F2093B801113039F580913601E09164
S11316603101F0913201E80FF11DE0818F5F809329
S1131670360190913501981730F482E08093CF01C0
S113168040E050E002C04E2F5527DE01AA0FBB1FD9
S1131690FD01E353FE4F8081823031F02F3F21F072
S11316A0A253BE4F4C9319C084E012C08091260906
S11316B00E945D0A082F85E00BC0809127090E94D3
S11316C05D0A082F86E004C00E94EF02082F87E01D
S11316D080937E0202C088E003C0002329F089E0E1
S11316E080937E020E94F0018F2D99278FBFFF9176
S11316F0EF91DF91CF91BF91AF919F918F917F91A6
S11317006F915F914F913F912F911F910F91FF9096
S11317100F900FBE0F901F9018951F920F920FB647
S11317200F9211248F9380919B0087FF02C08091B8
S11317309C008F910F900FBE0F901F901895789476
S11317401F920F920FB60F9211240F900FBE0F909D
S11317501F90189578941F920F920FB60F92112430
S11317600F900FBE0F901F90189578941F920F92B0
S11317700FB60F9211240F900FBE0F901F90189563
S113178078941F920F920FB60F9211240F900FBEF0
S11317900F901F90189578941F920F920FB60F9286
S11317A011248F939F9380918000909181009F9149
S11317B08F910F900FBE0F901F90189578941F92E1
S11317C00F920FB60F9211242F933F938F939F93F1
S11317D02FB7F89433278091B6019091B701019601
S11317E09093B7018093B6012FBF9F918F913F9142
S11317F02F910F900FBE0F901F901895CF93DF93EA
S1131800CDB7DEB72C970FB6F894DEBF0FBECDBFB1
S11318108FB7F894282FAE014F5F5F4FDA01E1E9EB
S1131820F2E088E001900D928150E1F78091AB01E4
S11318309091AC018987892F99278A878091C30168
S11318409091C4018B87892F99278C872FBF2CE017
S113185060E080E691E00E94E4062C960FB6F894CE
S1131860DEBF0FBECDBFDF91CF910895AF92BF927F
S1131870CF92DF92EF92FF920F931F93CF93DF9358
S1131880CDB7DEB724970FB6F894DEBF0FBECDBF39
S11318905C016B012A3051F4FC0180A5992787FD76
S11318A09095FB018383892F99278283F6012281F6
S11318B083813327322F22279927282B392B69EE4E
S11318C07FEF621B730B882777FD8095982F0E940A
S11318D077222DEC3CEC4CE052E40E940D229B015B
S11318E0AC0160E070E080E291E40E946623AB0109
S11318F0BC0140938C0250938D0260938E027093CE
S11319008F0249835A836B837C8389819A81AB815B
S1131910BC81F60184839583A683B783808121816A
S11319209927982F88273327822B932B019741F4EB
S113193040937A0250937B0260937C0270937D0201
S1131940F601808121819927982F88273327822BBC
S1131950932B029741F4409386015093870160933F
S113196088017093890160917A0270917B02809161
S11319707C0290917D029B01AC010E9403237B01B8
S11319808C0160918601709187018091880190910A
S113199089019B01AC010E9403239B01AC01C80196
S11319A0B7010E94A9210E94B6236093020270939A
S11319B00302809304029093050220E030E040E0AB
S11319C05FE30E9403236093DF087093E008809331
S11319D0E1089093E20869837A838B839C838981ED
S11319E09A81AB81BC81F60180879187A287B387F6
S11319F0EFB6F8948091B501882321F580915E01BA
S1131A009927FC01EE0FFF1FE557FE4FC080D180E0
S1131A10B182A08201966CE070E00E94342580932C
S1131A205E0120917F02281719F481E08093B501AB
S1131A308091DE08882349F40E94C90181E08093E3
S1131A40DE0803C00E94A00265018E2D99278FBF76
S1131A50C60124960FB6F894DEBF0FBECDBFDF914A
S1131A60CF911F910F91FF90EF90DF90CF90BF9097
S1131A70AF9008951F920F920FB60F9211248F9377
S1131A8083B783BF00B600FCFDCF8F910F900FBECC
S1131A900F901F901895442319F00E94A00220C0B3
S1131AA03FB7F89420912A09E22FFF27EE0FFF1F7A
S1131AB0EB52FE4F808191816817790771F4822F70
S1131AC08F5F80932A098C3010F010922A0980913C
S1131AD05D01882311F010925D01832F99278FBF38
S1131AE081E00E94C9010895809142018C3118F06F
S1131AF04CE150E002C0482F55278CE1E6EFF8E0B6
S1131B0011928A95E9F7909142018091400120E079
S1131B1030E0A6EFB8E00FC0E82FFF27E45FFA4FEC
S1131B20E081992329F08F5F8A3F09F480E0915086
S1131B30ED932F5F3F4F2417350771F790934201C0
S1131B40809340014CE16AEE78E08FEF9FEF0E94B2
S1131B505F02882319F087E10E94C90108958FB7B5
S1131B60F894282F332780914301813021F42FBF2B
S1131B7080E090E0089590E080914201882309F488
S1131B8091E0992321F02FBF81E090E0089581E056
S1131B90809343012FBF0E94740D80E090E008956C
S1131BA0662351F480914201882319F00E94740D38
S1131BB0089510924301089587E10E94C901089590
S1131BC0EF92FF920F931F93CF93DF93182F7B0114
S1131BD0042FE82FFF27EE0FFF1FE850FE4F11825E
S1131BE0108210921301A091F801B091F90110979D
S1131BF021F08091E30880FF0EC081E080931301FF
S1131C0003C086E10E94C9011123C9F4602FC701F2
S1131C100E94D00D14C0FD01359624813327ED01B7
S1131C206D817727762F662781819927682B792BF9
S1131C30AD0186810E940402882331F3E2CFDF9153
S1131C40CF911F910F91FF90EF9008951F93182F3C
S1131C5080914301882349F4809142018D3728F013
S1131C6081E0809343010E94740D8FB7F894282F6C
S1131C703327909142019A3FA8F480914101E82FC3
S1131C80FF27E45FFA4F10838F5F809341018A3FFF
S1131C9011F4109241019F5F909342012FBF80E0A5
S1131CA090E003C02FBF8FEF9FEF1F910895CF9255
S1131CB0DF92EF92FF920F931F93CFB6F894DD2437
S1131CC00E948C05DC01CB0166E470E00E942025B3
S1131CD03BE0E32EF12CE80EF91EF0922209E0928B
S1131CE021090E940C0600271127A80197010E94D0
S1131CF0C906CFBE1F910F91FF90EF90DF90CF9058
S1131D0008950F931F93182F0FB7F89461E080E0A4
S1131D100E944703882371F5109302018091050105
S1131D208823A9F580912701823089F588E00CC0C9
S1131D300E947E0380912701882349F481E08093E7
S1131D40270110928A018AE00E94C9012AC0809169
S1131D50BD018F3F31F5E0910401EE2311F11CC068
S1131D601092030104C0FF27E354FE4F1082109227
S1131D70040117C081E090E002C0880F991F1A95F2
S1131D80E2F720912601282B209326010AC0809196
S1131D9027018823E1F6CCCF809103018F3F19F707
S1131DA0DFCF802F99278FBF80E090E01F910F91A4
S1131DB008951F9383E00E9493039927182F882383
S1131DC019F083E00E94810E812F99271F910895B5
S1131DD01F93CF93DF93182F8FB7F894C82FDD2765
S1131DE060E080E00E946103882321F0CFBF80E09F
S1131DF090E005C0CFBF812F0E94D0039927DF91C7
S1131E00CF911F910895EF92FF920F931F93CF9359
S1131E10DF93182F7B01042F8FB7F894C82FDD2789
S1131E2060E080E00E946103882321F0CFBF80E05E
S1131E3090E014C0CFBF1064812F99279093CA01FA
S1131E408093C9010E94D003182F402F5527B70152
S1131E5080E090E00E944A04812F9927DF91CF917E
S1131E601F910F91FF90EF900895C09860914401E5
S1131E707091450141E08FE30E94030F089582E0D1
S1131E8090E090937F0180937E0181E08093A5018F
S1131E9020E030E080910201843011F421E030E050
S1131EA0232B29F484E00E949303882319F40E94CD
S1131EB0350F089584E00E94810E08951F920F92B9
S1131EC00FB60F9211242F933F934F935F936F9309
S1131ED07F938F939F93AF93BF93EF93FF938091DF
S1131EE07E0190917F01019749F482E090E0909304
S1131EF07F0180937E010E943F0F05C08091850180
S1131F008F5F80938501FF91EF91BF91AF919F9176
S1131F108F917F916F915F914F913F912F910F908E
S1131F200FBE0F901F9018951F9380912601882350
S1131F3009F04BC0109102011F3F09F046C060E058
S1131F400E946103882309F440C081E080930A055C
S1131F50809165018823E1F110920A0585E090E003
S1131F6045C0923069F5C09A8091030120E030E0C9
S1131F708F3F11F421E030E0232BE9F410930501A5
S1131F808F3F19F42FEF30E00DC0282F3327F901CC
S1131F90E354FE4F8081809303018F3F11F410932B
S1131FA00401108320938A0181E0809327018AE051
S1131FB00E94C90105C0109305011092270111C0A8
S1131FC080912701882369F00FC081E090E00EC062
S1131FD08091050190912701882319F2923021F014
S1131FE0EFCF80E00E94720380E090E01F9108959B
S1131FF01F93CF93DF939FB7F894C92FDD271C2F2E
S113200090910201981721F0CFBF81E090E03AC08F
S11320108FEF80930201309126013323F1F48FB7BF
S1132020F8949927109287028FBF0E94940FCFBF14
S113203011C02093020181E090E002C0880F991F33
S11320404A95E2F7809538233093260188E00E9470
S1132050C9011FBF80E090E015C080E065E0E32F78
S1132060FF270E941425292F492F5527CF01042E1D
S113207002C0959587950A94E2F780FDDACF822F06
S11320808F5FEFCFDF91CF911F9108951F93CF936F
S1132090DF938FB7F894C82FDD271C2F80917E0122
S11320A090917F01892B29F484E00E94F80FCFBF1F
S11320B01EC01092A50180918501882311F0B79963
S11320C004C00E9908C0882319F0815080938501BB
S11320D00E943F0F0BC081E090E090937F018093BA
S11320E07E011092850184E00E94F80F1FBFDF91EA
S11320F0CF911F9108950E947105C09AC09888E0FD
S11321000E94E80E88E00E94E80EC09A84E00E94D3
S1132110F80F0E9446100895FF920F931F93CF93D8
S1132120DF93F82E8B018FB7F894C82FDD2760E07A
S113213080E00E946103882321F0CFBF80E090E01B
S11321400CC0CFBF8F2D0E94D003812F99270E94EE
S1132150D003802F0E94D0039927DF91CF911F9144
S11321600F91FF9008951F931FB7F89480918401F5
S1132170882319F460E070E009C060E08091E7080A
S1132180882309F461E081E0682777278091AD0115
S1132190882319F480E090E00AC090E080919002D6
S11321A0882309F491E081E09827892F9927762FD5
S11321B06627770F770F770F54E0880F991F5A958A
S11321C0E1F7826E9262682B792B81E10E948C1078
S11321D0812F99278FBF1F9108958FB7F89499275E
S11321E0609109058FBF85E0689FB0011124625D8D
S11321F07E4F706488E10E948C100895EF92FF92E4
S11322001F93CF93DF93E090AE01F090AF01F701FD
S113221082A59927182F882309F41FE1C09880917B
S11322208301811749F0612F77276F717070606E99
S1132230706885E10E948C1010938301F70110816E
S11322408FB7F894C82FDD2760E080E00E94610317
S1132250882311F0CFBF12C0CFBF8EE390E09093DC
S1132260CA018093C9018EE30E94D0031150412F0B
S1132270552760E070E0C7010E944A04DF91CF91C6
S11322801F91FF90EF9008950F931F93CF93DF93C7
S1132290EC010FB7F89411270E940303FC018FE3AC
S11322A080830FBF1092E5081092E40861E082E099
S11322B00E944703882319F085E090E072C0809162
S11322C00B058F5F80930B0581508B838FB7F89438
S11322D0082F112762E081E00E946103882329F41A
S11322E00FBF0E946B0481E05BC08FB7F8949927FD
S11322F024E0209388028FBFD093D401C093D301EC
S11323000FBFFE013196818129819927982F882753
S11323103327822B932B80729C7C8983892F992766
S113232081832981982F882733272164822B932B3B
S11323308983892F992781831CA618A619A619AA0F
S113234018AA1FA680E88EA761E060938B024091D3
S1132350D3015091D4018FB7F894282F332780915B
S11323602801909129018830910511F0019711F00D
S11323702FBF15C082E090E090932901809328013B
S1132380609325095093AF014093AE011092490127
S11323902FBF0E94D90E882311F40E94FE1080E002
S11323A09927DF91CF911F910F9108951F93182FB3
S11323B081E090E0909329018093280110926501B7
S11323C00E94940F8FB7F8949927109322018FBF1E
S11323D084E00E94C9011F9108951F93CF93DF9356
S11323E08FB7F894C82FDD271C2F80912801909176
S11323F029010897C9F489E00E94E80E83E00E944D
S1132400F80FC09A81E090E090932901809328010D
S11324108FB7F894992723E0209322018FBF84E09B
S11324200E94C901CFBF30C0C0988091250988237C
S113243011F085E001C084E00E94E80E83FD09C02C
S113244080E00E94E80E83FF04C085E090E020E075
S113245003C083E090E021E0909329018093280158
S1132460C09A1FBF222341F01092490183E00E94C9
S1132470F80F0E94570E08C00E940C0620E431E0B9
S113248040E050E00E94C906DF91CF911F9108956A
S1132490EF92FF920F931F93CF93DF938B01809161
S11324A0C9019091CA0186FF40C18F7B8F3309F027
S11324B08EC1C0914401D09145015881509380014F
S11324C080917E0190917F018530910509F443C08C
S11324D08630910509F48AC0029709F01FC185E08E
S11324E090E090937F0180937E0140916301852F5A
S11324F099270196242F3327281739074CF1B799C8
S113250006C00E9904C0451B41504093630140919D
S113251080014A32E8F44423A1F0BE016F5F7F4F8B
S1132520483018F047E050E007C086E090E0909310
S11325307F0180937E01552780E090E00E944A0449
S113254046C11092A501C09A84E00E94F80FE3C02E
S11325500E947B103CC186E090E090937F018093C1
S11325607E018091AD01882309F439C080919002E5
S11325708823A9F5898185FF32C08F814E812FB7C9
S1132580F89433276091C3017091C4012FBF992738
S1132590982F88275527842B952B8617970759F052
S11325A08F812E819927982F88273327822B932B6D
S11325B08F5F9F4FA1F489818770813081F4C09A25
S11325C0C0988AE00E94E80EC09AC09840918001A9
S11325D047502896BE018FE30E94030FF8C0409134
S11325E08001475055272896BE01A6CFC09A8091F6
S11325F08501882339F484E00E94F80F80918501D5
S1132600882311F0B7990AC00E9B08C09091D8088E
S1132610992321F0809180018B3038F4809144011A
S1132620909145010E947D053DC0913001F5E091F6
S1132630DD08FF27EE0FFF1FEE0FFF1FEC57F74FCC
S11326402081318142815381E0914401F09145011F
S113265021ABBB27A52F942F832F80ABCA01AA27B8
S1132660BB2787A7252F33274427552726A78091E3
S1132670DD089927019668E070E00E943425809374
S1132680DD088091D80881508093D808882351F0C0
S113269080914401909145010E947D051092DD08CE
S11326A01092D80880918001FE01E80FF11D80810D
S11326B087FF31C0012B79F169816770E091440192
S11326C0F0914501623019F5A091AE01B091AF01CE
S11326D0109709F180912801909129010797D9F465
S11326E0ED019B8183819817B1F487B78F7E87BFF3
S11326F0908181E08CA7E90FF11D8291319688A722
S113270080818F7789A780E00E94D61104C0613050
S113271011F48BE02AC00E94461059C01092A50102
S1132720C09A84E00E94F80F52C08E3309F04FC063
S1132730C09A80912801909129010897C9F4C09802
S113274089E00E94E80EC09A83E00E94F80F81E0BD
S113275090E090932901809328018FB7F8949927EA
S113276023E0209322018FBF84E00E94C9012FC07F
S113277080912509882349F484E090E0909329010D
S1132780809328010E94ED1122C083E00E94F80F7B
S113279083E090E090932901809328010E948C05A6
S11327A0DC01CB0166E371E00E9420252BE0E22EE0
S11327B0F12CE80EF91EF0925C01E0925B010E949C
S11327C00C0600271127A80197010E94C906DF9172
S11327D0CF911F910F91FF90EF9008951F920F9248
S11327E00FB60F9211242F933F934F935F936F93E0
S11327F07F938F939F93AF93BF93EF93FF932FB1E7
S1132800E0917702F0917802309739F08091F601E7
S11328109091F701E80FF91F20838091F6019091C0
S1132820F70101969093F7018093F60180E00E94EE
S1132830780340914701509148018091F6019091AD
S1132840F7018417950718F40E94DC031CC06091FB
S11328507702709178028091E8089091E9081092CB
S11328607802109277021092E9081092E808109208
S11328704801109247011092F7011092F6012FB10E
S113288020E00E944812FF91EF91BF91AF919F9178
S11328908F917F916F915F914F913F912F910F9005
S11328A00FBE0F901F901895CF92DF92EF92FF9278
S11328B00F931F93CF93DF93CDB7DEB7A8970FB6CF
S11328C0F894DEBF0FBECDBFE82FFF27E831F10536
S11328D010F00C94511BEA5BFF4FEE0FFF1F0590A5
S11328E0F491E02D09948091E308882309F4D9C672
S11328F090E011E09AC68FB7F894282F3327422F1F
S113290090915E0180917F02981739F48091B5010E
S1132910882319F41092DE084CC04FBFE0917F0267
S1132920FF27EE0FFF1FE557FE4FA081B1812C91C9
S11329302D50332720930002FD0183856781068192
S1132940418590855527542F4427E92FFF274E2B87
S11329505F2BFD014087452F55274783E0917F0278
S1132960FF27EE0FFF1FE557FE4F40815181772768
S1132970762F66271127602B712B0E94040288236F
S113298009F0D5C58FB7F89499272BB332E093C0DB
S11329908FB7F894282F3327422F909146018091C6
S11329A02A09981741F480915D01882321F410923B
S11329B04E012FBF76C64FBFE0912A09FF27EE0FC5
S11329C0FF1FEB52FE4FA081B181FD018185682F6D
S11329D07727462F858126816D3108F070C09927AD
S11329E0982F88273327822B932B8683892F992727
S11329F087832FB7F89433278091AB019091AC0172
S1132A002FBF8483892F992785832FB7F894332781
S1132A1080910601909107012FBF8087892F992704
S1132A2081878D010F5F1F4FF8018181FD01218195
S1132A309927982F8827332720643868822B932B73
S1132A408183892F9927F8018183435F4C934D50EB
S1132A5080910901882351F010920901CD010E944F
S1132A6044119927282F8823A9F417C0842F992764
S1132A709093D2018093D101B0932D01A0932C01A6
S1132A808EE00E94C90180910901882349F489E0FC
S1132A9090E00AC08FEF80930901822F992704C028
S1132AA01092B40180E090E0892B49F48FB7F89438
S1132AB099272BB334E023272BBB8FBFF2C50E9489
S1132AC0A00281E0ECC50FB7F894112781E00E94C1
S1132AD0250741E0E42EF12CF0922901E09228012F
S1132AE010922A0110926501109283010FBF0FB753
S1132AF0F89411270E947105F0927F01E0927E0103
S1132B001092A50189B78F7B89BF80E488BF8AB7FB
S1132B1080628ABF8AB78F7E8ABF89B7806489BF83
S1132B200FBF8FB7F894082F11278091230190913C
S1132B302401049719F483E00E94E80E0FBF0FB735
S1132B40F8941127C09A80E00E94F80F0FBF8FB746
S1132B50F894992722E0209388028FBF10925D0198
S1132B60A0C58FB7F894992710928802A6CF8FB783
S1132B70F8949927F09022018FBF63E081E00E94CE
S1132B806103882359F10FB7F89411271092290192
S1132B901092280187B78F7E87BF87B78F7D87BF45
S1132BA083E00E94F80FC09A0FBF0FB7F894112763
S1132BB010927F0110927E010E947105C09A89B71C
S1132BC08F7B89BF0FBF1092240110922301DE98DE
S1132BD0DD98DE9A83E00E94C90107C08FB7F8949C
S1132BE0992722E0209388028FBF0091D30110918E
S1132BF0D4010E946B048091E4089091E508892B2C
S1132C0009F04FC58FEF809309014F2DB8015DC3C3
S1132C108FB7F894282F3327122F80912309882304
S1132C2009F0C7CE81E0809323098091230190911C
S1132C302401049721F481E00E94810E03C086E000
S1132C400E94C9011FBF2DC58FB7F8949927109210
S1132C50230933CF8FB7F894282F33278091250188
S1132C60882309F0A6CE2FBF80B3992736E0969526
S1132C7087953A95E1F7182F11709091C5018091CD
S1132C80C6018917D9F01917C9F484E090E090932C
S1132C902401809323018FB7F894992721E020938E
S1132CA025018FBF60E070E08DE10E948C100E94CE
S1132CB0FE0BC09AC09882E00E94C9011093C6011D
S1132CC087E0EDC48FB7F8949927109102018FBF64
S1132CD0123009F465C0133030F4112359F0113067
S1132CE009F0DFC448C0133009F474C0143009F08B
S1132CF0D8C4A0C0C0988FB7F894082F112780912A
S1132D00230190912401029709F0ABC383E090E082
S1132D10909324018093230168E170E08DE10E9487
S1132D208C1081E08093C5011092250180B399270E
S1132D3026E0969587952A95E1F7817090708093A7
S1132D40C60187E00E94C90181E00E94E80E6FE796
S1132D5072E08CE10E948C100E94ED100E94B3106E
S1132D6066E57AE287E10E948C106FEF70E885E1F6
S1132D700E948C1076C3C09886E00E94E80E0E94E0
S1132D80ED100E94B3100E94FE0BC09AC09883E01D
S1132D900E94E80EC09A81E00E94F80F86E07FC48A
S1132DA0C0988FB7F894082F112760E080E00E9444
S1132DB06103882311F00FBF0AC00FBF83E50E948F
S1132DC0D00380E00E94D00380E00E94D003C09A28
S1132DD082E02DC08FB7F8949927209128018FBFE6
S1132DE0243039F0283041F0223001F50E94FE10E1
S1132DF058C40E94ED1155C4C09889E00E94E80EA1
S1132E00C09A83E00E94F80F8FB7F894992721E0C5
S1132E1030E030932901209328018FBF8FB7F894B5
S1132E209927109322018FBF84E039C483E00E9464
S1132E30F80F37C40E94350F34C40FB7F894112724
S1132E404091470150914801609177027091780256
S1132E508091E8089091E908109278021092770224
S1132E601092E9081092E808109248011092470164
S1132E701092F7011092F60120E00E944812F1C26C
S1132E802FB7F894332780918A018093050182E05B
S1132E90809327012FBF80910501882309F001C485
S1132EA0B89AC09888E0FBC3A0914401B091450151
S1132EB0DC909D012D0D311DF9018081881F88272B
S1132EC0881FFD0183A7F90180818F77FD0181A708
S1132ED021503040F9018081FD0180A7A091440177
S1132EE0B0914501FD0132818FB7F8949927209163
S1132EF084018FBF222309F490C0832F99279695CC
S1132F00879596958795837090708230910541F5E9
S1132F10878146812FB7F89433276091C30170915C
S1132F20C4012FBF9927982F88275527842B952BC9
S1132F308617970719F481E090E06CC0FD01878142
S1132F40268140E050E09927982F88273327822B49
S1132F50932B8F5F9F4F11F441E050E0CA015AC098
S1132F60039709F009C19E012F5F3F4F41E952E0E9
S1132F7088E0FA010190AF01F90101929F018150AB
S1132F80C1F79E012F5D3F4FAE014F5F5F4F88E059
S1132F90FA010190AF01F90101929F018150C1F73B
S1132FA09E01275F3F4FAE014F5D5F4F88E0FA01FE
S1132FB00190AF01F90101929F018150C1F79E0177
S1132FC02F5E3F4FAE01475F5F4F88E0FA010190EB
S1132FD0AF01F90101929F018150C1F79E01275E63
S1132FE03F4FAE014F5E5F4F88E0FA010190AF01A1
S1132FF0F90101929F018150C1F748E050E0BE0100
S1133000675E7F4FCD0106960E94BF25892B09F08C
S1133010B3C003C0882309F4AFC0FCE0FD1508F079
S1133020ABC0E0904401F0904501F7012281822F6A
S1133030992736E0969587953A95E1F7039719F421
S113304068E070E002C062E070E0822F99279695F4
S113305087959695879583709070039719F488E007
S113306090E002C082E090E026E030E0E20EF31E41
S113307040E050E020E030E0F701E80FF91F8AEF6C
S11330809FEFE80EF91E05C08191480F511D2F5F77
S11330903F4F26173707C4F3F70163818FEF8093FF
S11330A0E6088FB7F894782F20E030E0EFE4F1E001
S11330B0808191818417950729F48281861731F1E3
S11330C02093E6082F5F3F4F33962430310581F774
S11330D07FBF9091E6083FB7F8949F3F21F080911D
S11330E02B018917A9F420912B01822F9927FC0128
S11330F0EE0FFF1FE80FF91FE15BFE4F5183408382
S113310062832F5F237020932B010EC07FBF30C0DA
S1133110892F9927FC01EE0FFF1FE80FF91FE15BD0
S1133120FE4F518340836283832F99278FBF0FB74C
S1133130F8941127C7010E940303FC0190810FBF7B
S1133140F70183A58823A1F09F3391F4AD2DAD50F1
S11331508701045F1F4F2FB7F89433272FBFF70160
S1133160238533274A2FB801C7010E94360C7C01FE
S1133170F0924501E09244018FB7F8949927109298
S1133180A5018FBF0E9446108CC2809182018823C2
S113319061F5209180083091810840918208509116
S11331A08308EFB7F894FF2760918302709184023B
S11331B08091850290918602E0905F01F090600119
S11331C000916101109162016E0D7F1D801F911F9E
S11331D0EFBF209380083093810840938208509376
S11331E08308109282010E9457050E9472043AC01B
S11331F00E9472047B018C018FB7F8949927109276
S1133200ED018FBF80910E0281FF4BC280910602B7
S113321090910702A0910802B0910902A8019701B8
S1133220281B390B4A0B5B0BDA01C90120910A02F6
S113323030910B0240910C0250910D02281B390B66
S11332404A0B5B0B2F3F8FEF38078FEF48078FE751
S1133250580709F426C212161306140615062CF094
S1133260C801B7010E9499041CC2209380083093BE
S11332708108409382085093830881E080938201FF
S1133280C801B7010E9457050CC29091B401809106
S11332900901981709F405C2909309019923D1F4FF
S11332A000912C0110912D016091D101C8010E945F
S11332B04411482F5527442309F4F3C18FEF809319
S11332C0090160912C0170912D01F80183850E9400
S11332D04B0DE7C18FEF80930901E3C18FB7F894D9
S11332E01092200920917E0240E0283009F441E048
S11332F030E0293009F431E0442311F4332351F050
S113330010927E02E0910102FF27EE0FFF1FE353AC
S1133310FE4F108299278FBF442311F4332331F1D8
S11333209FB7F8948091DC088F5F8093DC088091CC
S1133330BE01833479F42091EF018091EE0182176C
S113334079F0822F8F5F8093EF01863048F01092DE
S1133350EF0106C0A0E0442309F4A1E071E002C03B
S1133360A0E070E0892F99278FBF06C0222311F0B7
S1133370FF246DC0A0E070E08FB7F89499272091E6
S11333802E018FBF222341F08FB7F89499272AE0AA
S113339020937E028FBF42C08FB7F8949927609123
S11333A0CD014091CF018FBF8FB7F894282F3327D9
S11333B050E09091EE018091EF01981709F451E0EB
S11333C02FBF552341F5662331F55FB7F89482E0AA
S11333D08093CD018FB7F894282F332740E0909144
S11333E0EE018091EF01981709F441E02FBF4423C7
S11333F011F080E006C0E091EF01FF27E251FE4F9B
S113340082818093CE0183E48093BE0110920102F5
S1133410852F99270EC04150423010F0FF240CC074
S11334208FB7F894992725E42093BE0121E02093D7
S113343001028FBFE1E0FE2E772349F08FB7F894A5
S11334409927A09337018FBF83E10E94C9018FB7E9
S1133450F894082F112780917E028A3021F40E946B
S1133460A9020FBF1EC10FBFFF2009F41AC12FB755
S1133470F894332710922709109226091092B80164
S113348081E080937E022FBF0E94EF02882309F41B
S113349008C18FB7F894992729E020937E028FBF43
S11334A00E94F001FEC0569857981092790210922B
S11334B0A901539A549A579A8FB7F894992710925E
S11334C07E021092A6018FBF1092B501EAC082E17C
S11334D0E6C053985498E5C0109234011092330119
S11334E08FB7F8949927F09037018FBF80913801F6
S11334F0882311F073E0F72E00913101109132010D
S113350080913901882309F0CCC08091130188236C
S113351061F48091F8019091F9018017910729F4E1
S11335204F2DB80180E00E94E00DFF2019F00E94A9
S1133530A00220C03FB7F89420917F02E22FFF271A
S1133540EE0FFF1FE557FE4F808191810817190781
S113355071F4822F8F5F80937F028C3010F0109271
S11335607F028091B501882311F01092B501832F59
S113357099278FBF80E093C08FB7F8949927209143
S11335803B0100913C0110913D01D09064018FBF3B
S11335902223A1F5CFB6F89480915D01882339F5F3
S11335A080914601E82FFF27EE0FFF1FEB52FE4FDD
S11335B0E080F180118300838F5F809346018C301B
S11335C010F0109246019091460180912A099817B3
S11335D019F481E080935D0180914E01882351F4B8
S11335E081E00E94C90181E080934E0103C00E94E2
S11335F0A00278018C2D99278FBF87018FB7F8948B
S1133600ED2DFF27EE0FFF1FE35FFE4F11830083B5
S113361020912F01DD2011F02B7F01C02D7F2093FD
S11336202F0110923A01992748CA2091E308812F6B
S11336308223C1F0E92FFF27EE0FFF1FE850FE4F52
S11336404081518111821082812F809528232093FB
S1133650E308992339F463E0CA010E94D00D110FE5
S113366091E0E3CF9F5F9830E0F4110FDECF8091BB
S11336701301E82FFF27EE0FFF1FE850FE4F608174
S1133680718141E00E94E00D0CC04CE16AEE78E0EB
S11336908FEF9FEF0E945F02882319F087E10E9459
S11336A0C901A8960FB6F894DEBF0FBECDBFDF9157
S11336B0CF911F910F91FF90EF90DF90CF900895DD
S11336C08091D9088F3FB1F0282F3327F901EA59A7
S11336D0FE4F80818093D9088F3F11F48093240991
S11336E08FEF80832F3F31F0822F0E94541481E0AA
S11336F090E0089580E090E0089578941F920F92EE
S11337000FB60F9211242F923F924F925F926F92B5
S11337107F928F929F92AF92BF92CF92DF92EF925D
S1133720FF920F931F932F933F934F935F936F9346
S11337307F938F939F93AF93BF93CF93DF93EF9335
S1133740FF93C6B5D7B58FB7F894282E0E940C0600
S11337509B012C1B3D0B442755272B013C01421A8E
S1133760530A640A750A80912801909129018530D1
S1133770910521F0069709F0E0C0BFC086E090E013
S1133780909329018093280131E0332E3092A401D3
S113379010922A0180E00E942507E091AE01F09189
S11337A0AF0141AABB27A72D962D852D80ABC30160
S11337B0AA27BB2787A7872D9927AA27BB2786A7D0
S11337C0E091AE01F091AF0185A5882309F484C08E
S11337D06081655077274F01860E971EF401208182
S11337E0E1808281A3809927AA27BB27BA2FA92F1A
S11337F0982F8827332744275527522F44273327C8
S11338002227FF24002711278701FF24EE242E29D5
S11338103F29402B512BBB24CC24DD242A293B29CE
S11338204C295D29822B932BA42BB52B8419950944
S1133830A609B7098383292F3A2F4B2F55272283B3
S11338409D014427552721838B2F9927AA27BB271E
S11338508083C09824E0A40180E090E00E94E40604
S1133860C09AF4012081E1808281A3809927AA274C
S1133870BB27BA2FA92F982F8827332744275527EA
S1133880522F442733272227FF240027112787019B
S1133890FF24EE242E293F29402B512BBB24CC247A
S11338A0DD242A293B294C295D29822B932BA42B27
S11338B0B52B840D951DA61DB71D8383292F3A2F83
S11338C04B2F552722839D014427552721838B2F76
S11338D09927AA27BB278083E091AE01F091AF011D
S11338E0818185FF02C03092650183E00E94F80F58
S11338F087B78F7E87BF84997AC01092A40181E034
S11339000E942507E091AE01F091AF01818185FF0E
S11339100FC087E090E090932901809328010E94D2
S11339200C0620E031E040E050E00E94C90603C0EC
S113393080E00E94D611849B5AC080912A0188237A
S113394091F58091A401882371F511E01093A401ED
S11339500E94250780B32091D808283098F4E0917C
S1133960DD08E20FFF27E770F070EE0FFF1FEE0F88
S1133970FF1FEC57F74F40825182628273822F5FA0
S11339802093D80810932A01D093CC01C093CB0183
S113399084992DC0992724E0969587952A95E1F777
S11339A0182F117001C010E08091A4018130F9F446
S11339B01092A4010E94250710922A011123B9F440
S11339C08091CB019091CC01C81BD90B2A9778F434
S11339D08091D808882319F081508093D808809169
S11339E0AE019091AF01009711F00E947D052FBEAA
S11339F0FF91EF91DF91CF91BF91AF919F918F9103
S1133A007F916F915F914F913F912F911F910F91F2
S1133A10FF90EF90DF90CF90BF90AF909F908F90EA
S1133A207F906F905F904F903F902F900F900FBEBC
S1133A300F901F90189578941F920F920FB60F92C3
S1133A4011241F932F933F934F935F936F937F930F
S1133A508F939F93AF93BF93EF93FF9387B78F7E1B
S1133A6087BF78941FB7F8948091B9019091BA01F7
S1133A70A091BB01B091BC010097A105B10509F06B
S1133A8051C080912801909129018530910561F1FF
S1133A908630910530F48330910549F0049781F51F
S1133AA01AC087309105F1F0089751F514C0869B30
S1133AB00FC084E090E090932901809328010E9434
S1133AC00C0627E030E040E050E00E94C90618C030
S1133AD00E94570E15C00E94D90E882389F40E94B3
S1133AE0ED110EC080E00AC089E00E94E80E81E07A
S1133AF00E94250783E00E94F80F87E00E94D611F8
S1133B008091230190912401019771F482E090E067
S1133B109093240180932301DE98DE9A80E00E9432
S1133B20810E02C00E942906812F99278FBFFF9121
S1133B30EF91BF91AF919F918F917F916F915F9121
S1133B404F913F912F911F910F900FBE0F901F9097
S1133B501895FF920F931F93CF93DF93CDB7DEB7E2
S1133B60E0970FB6F894DEBF0FBECDBFFFB6F89452
S1133B7048E150E06FEF70E086E691E00E94CC25CA
S1133B808FEF8093D9088093240981E08EBD88E06B
S1133B9080BF83E083BF8CB59DB54AE72CB53DB5A6
S1133BA02817390708F44150442311F0C901F6CF0E
S1133BB092B782B78917E9F32CB53DB592B782B7AE
S1133BC08917E9F38CB59DB5821B930B409665E08C
S1133BD0969587956A95E1F79093DB088093DA08C8
S1133BE013BE83B78EBD8EB580BF12BE1DBC1CBC78
S1133BF08FEF86BF86B780937C0080B79927877044
S1133C009070892BD1F7D29AD19AD09ADA9AD99A0C
S1133C10D89A15BA8FEF84BBD498DC981092890097
S1133C201092880080917D00846080937D00809153
S1133C308A00887F826080938A001DBC1CBC87B781
S1133C40846087BF8EB5887F84608EBD0E94601BB0
S1133C508823E1F784E191E090932E0980932D0964
S1133C601092430112E006E06091DA087091DB08DB
S1133C70882799275CE0660F771F881F991F5A953C
S1133C80D1F720E031EE40E050E00E94472521507A
S1133C90304029B9832F9927809390001BB9009352
S1133CA095001AB8209399008093980010939B0074
S1133CB000939D0010929A0084E490E090937C0815
S1133CC080937B081092CD011092CF018AE08093FB
S1133CD07E021092B8011092BE011092DC0810927C
S1133CE027091092260910922009109201021092BD
S1133CF077081092760884E08093A60110928102DE
S1133D0010927F081092AA011092FD011092FC01FA
S1133D101092EF011092EE018FEF8093A301EFE474
S1133D20F1E08FEF9FEF918380831282339621E03D
S1133D30EB35F207C1F70E948C0560930B05809167
S1133D400001909101010196AA27BB278093B0013D
S1133D509093B101A093B201B093B30180B788608E
S1133D6080BF8BE083BF86EE81BF87B7826087BF49
S1133D700E94D40484EA98E090934501809344011E
S1133D808E98B89A8C988FEF8093BD011092870219
S1133D90109288021092890210928A02B89AD69AD6
S1133DA0D59A8FB7F894992720910601309107018D
S1133DB08FBF3093C4012093C3010E94380729A701
S1133DC03AA74BA75CA76DA77EA78FA798ABDE0188
S1133DD09196FE01B99688E001900D928150E1F729
S1133DE0DE015196FE01B19688E001900D9281505A
S1133DF0E1F7DE015996FE01719688E001900D927B
S1133E008150E1F7A1E9B2E0FE01799688E00190E2
S1133E100D928150E1F78091080199279093AC01AC
S1133E208093AB018FE1809382028AE1809309053C
S1133E300E94380729A73AA74BA75CA76DA77EA7BE
S1133E408FA798ABDE019196FE01B99688E00190A8
S1133E500D928150E1F7DE011196FE01B19688E0E2
S1133E6001900D928150E1F7DE011996FE01319621
S1133E7088E001900D928150E1F7A1E9B2E0FE01E2
S1133E80399688E001900D928150E1F7A1E9B2E002
S1133E90FD0137969C9180818D939083319782E0C8
S1133EA0E439F807B9F781E0809384011092E708B8
S1133EB08093AD01109290020E94601B8823E1F769
S1133EC08F2D99278FBF78940E946807EBE8F1E063
S1133ED086E096E081939193C49621E0E33AF20759
S1133EE0C9F710927F0210925E011092DE0881E001
S1133EF08093B501E5EDF1E089E992E08193919336
S1133F00C49621E0ED3EF207C9F710922A091092F7
S1133F10460110924E0181E080935D0161E00E94B0
S1133F2047038823E9F48FB7F894282F3327809127
S1133F30230190912401892B11F02FBF1BC081E034
S1133F4090E090932401809323012FBFDD9A0E9477
S1133F500C0624E130E040E050E00E94C9060AC0AB
S1133F6062E081E00E946103882321F461E081E042
S1133F700E9461030E9468078FB7F894482F552761
S1133F804BC087B7992783709070892B19F4E5E0AB
S1133F90F0E013C080B7992787709070892BD1F710
S1133FA081B792B7891B8C3030F082B7853F18F403
S1133FB0E3E0F0E002C0E2E0F0E087B7887BC1F420
S1133FC080917D008B7FA1F46E9912C08AB190918B
S1133FD09A00892B887161F48091740082FD08C075
S1133FE0379B03C081E090E005C085E090E002C00B
S1133FF080E090E025B78E1708F4E82FFF27E25CF5
S1134000FC4FE491237E2062E22BE5BF78948895EF
S1134010F89485B78F7D85BF8091D9088F3F09F4C7
S1134020B0CF282F3327F901EA59FE4F80818093BE
S1134030D9088F3F11F4809324098FEF80832F3F99
S113404009F49FCF4FBF822F0E94541495CFACE246
S1134050B0E0EDE2F0E20C948825222E332E442EBB
S1134060552E662E772E882E992EFE013196A8E0C5
S11340701192AA95E9F729823A824B825C826D8279
S11340807E828F829886FE013996B8E01192BA95A5
S1134090E9F7A986BA86CB86DC86ED86FE860F878D
S11340A0188B89819A81AB81BC8189A79AA7ABA718
S11340B0BCA77C018D018FEF9FEFA0E0B0E0E82268
S11340C0F9220A231B2389A59AA5ABA5BCA51D012A
S11340D04424552489859A85AB85BC858DA39EA3EC
S11340E0AFA3B8A75C016D018FEF9FEFA0E0B0E034
S11340F0A822B922CA22DB228DA19EA1AFA1B8A514
S11341003D0188249924C801B701A60195010E94A4
S1134110692569A37AA38BA39CA3C801B701A40151
S113412093010E9469257B018C01C201B101A601A2
S113413095010E9469255B016C01C201B101A401D2
S113414093010E9469253B014C01EA0CFB1C0C1DE8
S11341501D1D89A19AA1ABA1BCA19D01442755278E
S11341602E0D3F1D401F511F2A153B054C055D05B3
S113417040F480E090E0A1E0B0E0680E791E8A1E71
S11341809B1ECA01AA27BB27860D971DA81DB91D12
S11341908D8F9E8FAF8FB8A3A9013327222789A1C2
S11341A09AA1ABA1BCA1A070B070280F391F4A1FFF
S11341B05B1F298F3A8F4B8F5C8FA98CBA8CCB8C69
S11341C0DC8CED8CFE8C0F8D18A1FE01719698E0AD
S11341D011929A95E9F7ED8AFE8A0F8B188F2D813B
S11341E03E814F8158856DA17EA18FA198A50E9423
S11341F069253B014C012D853E854F85588969A56C
S11342007AA58BA59CA50E9469252D893E894F8995
S1134210588D260F371F481F591F260D371D481D5F
S1134220591D2D8B3E8B4F8B588F6D887E888F88C0
S1134230988C2A2D3B2D4C2D5D2D662D772D882DA8
S1134240992DE2E1AC960C94A425A0E1B0E0EBE258
S1134250F1E20C948825222E332E442E552E662E00
S1134260772E882E992E002309F466C088E0FE017B
S1134270319611928A95E9F729833A834B835C83BB
S11342806D837E838F829887E0E2E01B1E16CCF557
S11342902D813E814F815885602F772767FD70956A
S11342A0DA01C901062E04C0B695A795979587959E
S11342B00A94D2F78D879E87AF87B88B04C0220FEC
S11342C0331F441F551FEA95D2F789819A81AB8128
S11342D0BC8104C0B695A795979587956A95D2F742
S11342E0282B392B4A2B5B2B29873A874B875C87F2
S11342F029843A844B845C846D847E848F8498887A
S11343001BC01D861E861F86188A2E2F332727FD65
S11343103095309521953F4F8D819E81AF81B88531
S113432004C0B695A795979587952A95D2F789875E
S11343309A87AB87BC87DCCF222D332D442D552D96
S1134340662D772D882D992DE2E160960C94A42595
S11343505058BB27AA270ED01CC10DD130F012D162
S113436020F031F49F3F11F41EF402C10EF4E095E5
S1134370E7FBF8C0E92F1ED180F3BA176207730771
S11343808407950718F071F49EF536C10EF4E09594
S11343900B2EBA2FA02D0B01B90190010C01CA01FB
S11343A0A0011124FF27591B99F0593F50F4503EA6
S11343B068F11A16F040A22F232F342F4427585F98
S11343C0F3CF469537952795A795F0405395C9F7B0
S11343D07EF41F16BA0B620B730B840BBAF0915068
S11343E0A1F0FF0FBB1F661F771F881FC2F70EC007
S11343F0BA0F621F731F841F48F4879577956795DA
S1134400B795F7959E3F08F0B3CF9395880F08F0C2
S11344109927EE0F9795879508950CD0BAC0B2D01E
S113442040F0A9D030F021F45F3F19F09BC0511146
S1134430E4C09EC0BFD098F39923C9F35523B1F3C8
S1134440951B550BBB27AA2762177307840738F0FF
S11344509F5F5F4F220F331F441FAA1FA9F333D05E
S11344600E2E3AF0E0E830D091505040E695001C12
S1134470CAF729D0FE2F27D0660F771F881FBB1FCE
S1134480261737074807AB07B0E809F0BB0B802DA8
S1134490BF01FF2793585F4F2AF09E3F510568F0F4
S11344A061C0ABC05F3FECF3983EDCF38695779533
S11344B06795B795F7959F5FC9F7880F911D9695F6
S11344C0879597F90895E1E0660F771F881FBB1F52
S11344D0621773078407BA0720F0621B730B840BFF
S11344E0BA0BEE1F88F7E0950895E89409C097FB8E
S11344F03EF490958095709561957F4F8F4F9F4FB7
S11345009923A9F0F92F96E9BB279395F6958795FA
S113451077956795B795F111F8CFFAF4BB0F11F4BD
S113452060FF1BC06F5F7F4F8F4F9F4F16C0882364
S113453011F096E911C0772321F09EE8872F762F9A
S113454005C0662371F096E8862F70E060E02AF0DB
S11345509A95660F771F881FDAF7880F96958795C7
S113456097F9089597F99F6780E870E060E00895EF
S11345709FEF80EC089500240A9416161706180677
S11345800906089500240A94121613061406050653
S11345900895092E0394000C11F4882352F0BB0FE4
S11345A040F4BF2B11F460FF04C06F5F7F4F8F4F47
S11345B09F4F089557FD9058440F551F59F05F3F82
S11345C071F04795880F97FB991F61F09F3F79F031
S11345D087950895121613061406551FF2CF4695B3
S11345E0F1DF08C0161617061806991FF1CF869535
S11345F07105610508940895E894BB276627772719
S1134600CB0197F908950BD0C4CFB5DF28F0BADFFA
S113461018F0952309F0A6CFABCF1124EECFCADF53
S1134620A0F3959FD1F3950F50E0551F629FF001C1
S1134630729FBB27F00DB11D639FAA27F00DB11D1A
S1134640AA1F649F6627B00DA11D661F829F2227A3
S1134650B00DA11D621F739FB00DA11D621F839F2A
S1134660A00D611D221F749F3327A00D611D231F00
S1134670849F600D211D822F762F6A2F11249F574E
S113468050408AF0E1F088234AF0EE0FFF1FBB1F71
S1134690661F771F881F91505040A9F79E3F510510
S11346A070F060CFAACF5F3FECF3983EDCF38695C1
S11346B077956795B795F795E7959F5FC1F7FE2BBB
S11346C0880F911D9695879597F90895FA01EE0F35
S11346D0FF1F30962105310599F16115710561F4CB
S11346E08038BFE39B0749F168949038810561F0F5
S11346F08038BFEF9B0741F0992342F5FF3FE10566
S11347003105210511F1E8940894E795D901AA230C
S113471029F4AB2FBE2FF85FD0F310C0FF5F70F405
S1134720A695E0F7F73950F019F0FF3A38F49F777F
S11347309F930CD00F9007FC905808953EF018CF2B
S113474060E070E080E89FE308954FE79F775F9310
S11347504F933F932F93F5D02F913F914F915F91BA
S113476052DF47C011F40EF403CF6FC02BDFD0F338
S11347709923D9F3CEF39F57550B87FF74D00024A8
S1134780A0E640EA900180585695979528F4805CFD
S1134790660F771F881F20F026173707480730F465
S11347A0621B730B840B202931294A2BA69517947D
S11347B00794202531254A2758F7660F771F881F4D
S11347C020F026173707480730F4620B730B840B6D
S11347D0200D311D411DA09581F7B901842F9158F9
S11347E0880F96958795089519F40EF0BBCE04CFE3
S11347F0BFCEE8DEC8F39638C0F707F80F92E89406
S11348002BE33AEA48EB5FE70CDF0F920F920F922B
S11348104DB75EB70F92D5D0ECEBF0E02BD04F91B3
S11348205F91EF91FF91E595EE1FFF1F49F0FE5751
S1134830E0684427EE0F441FFA95E1F74195550BC4
S113484047D00F9007FE3BC008959F3F31F0915031
S113485020F4879577956795B795880F911D969560
S1134860879597F9089591505040660F771F881FD8
S1134870D2F70895DF93CF931F930F93FF92EF9294
S1134880DF927B018C01689405C0DA2EEF01C7DE4C
S1134890FE01E894A5912591359145915591AEF38A
S11348A0EF0168DDFE019701A801DA9479F7DF9042
S11348B0EF90FF900F911F91CF91DF9108959B018D
S11348C0AC0160E070E080E89FE3A7CD4BCEBDCFA4
S11348D079DEE8F39923D9F3940F511DBBF391507A
S11348E0504094F059F0882332F0660F771F881FE8
S11348F091505040C1F79E3F510544F7880F911DD8
S11349009695879597F908955F3FACF0983E9CF093
S1134910BB27869577956795B79508F4B16093950D
S1134920C1F7BB0F58F711F460FFE8CF6F5F7F4FFB
S11349308F4F9F4FE3CF61CE0EF087CF19CE68948F
S113494011CE40DEC8F39923D1F3C6F3DF93CF939E
S11349501F930F93FF92C92FDD2788232AF02197F5
S1134960660F771F881FDAF720E030E040E85FEB3E
S11349709FE3883920F0803E30F021968F77E9DC80
S1134980E4EEF0E003C0E5DCE1E1F1E073DF8B018C
S1134990BE01EC01FB2E6F5771097595771F880BCB
S11349A0990BA5DD28E132E741E35FE338DEAF2D63
S11349B09801AE01FF900F911F91CF91DF91DADC46
S11349C0E8CDFA01DC01AA0FBB1F9B01AC01BF5764
S11349D028F422273327442750781FC0B75188F47E
S11349E0AB2F0024469537952795011CA395D2F348
S11349F0002069F0220F331F441FB395DAF30DD062
S1134A00A7CC61307105A0E88A07B94630F49B0150
S1134A10AC016627772788279078309621F0208389
S1134A203183428353830895991B79E004C0991F0D
S1134A30961708F0961B881F7A95C9F780950895F4
S1134A40AA1BBB1B51E107C0AA1FBB1FA617B707B0
S1134A5010F0A61BB70B881F991F5A95A9F78095CC
S1134A609095BC01CD01089597FB092E07260AD025
S1134A7077FD04D0E5DF06D000201AF47095619527
S1134A807F4F0895F6F7909581959F4F0895A1E281
S1134A901A2EAA1BBB1BFD010DC0AA1FBB1FEE1FB4
S1134AA0FF1FA217B307E407F50720F0A21BB30BFF
S1134AB0E40BF50B661F771F881F991F1A9469F77B
S1134AC060957095809590959B01AC01BD01CF01D7
S1134AD00895629FD001739FF001829FE00DF11D44
S1134AE0649FE00DF11D929FF00D839FF00D749F64
S1134AF0F00D659FF00D9927729FB00DE11DF91F10
S1134B00639FB00DE11DF91FBD01CF01112408956C
S1134B102F923F924F925F926F927F928F929F92C9
S1134B20AF92BF92CF92DF92EF92FF920F931F93B7
S1134B30CF93DF93CDB7DEB7CA1BDB0B0FB6F89468
S1134B40DEBF0FBECDBF09942A88398848885F84A8
S1134B506E847D848C849B84AA84B984C884DF8019
S1134B60EE80FD800C811B81AA81B981CE0FD11DFD
S1134B700FB6F894DEBF0FBECDBFED010895FB0163
S1134B80DC0104C08D910190801921F44150504002
S1134B90C8F7881B990B0895DC0101C06D9341503F
S10B4BA05040E0F70895FFCF37
S1134BA80100FFFFFFFF010022FFFFFFFF0F024389
S1134BB8020F02010000000200000000260E00009F
S1054BC80000E7
S9030000FC
