S01800006275696C642F6D6963617A2F6D61696E2E73726563E5
S11300000C9449000C9411050C941B050C942505C3
S11300100C942F050C9439050C9443050C94AF06ED
S11300200C944D050C9468000C9468000C94831493
S11300300C941D0B0C94DB040C94F1040C948F05AC
S11300400C94CA040C94510D0C9468000C94680030
S11300500C9468000C9468000C9468000C9468007C
S11300600C94E6040C9468000C9468000C946800EA
S11300700C9468000C9468000C9468000C9468005C
S11300800C9468000C9468000C94680000081C1818
S1130090141011241FBECFEFD0E1DEBFCDBF11E09D
S11300A0A0E0B1E0E0E8F0E300E00BBF02C007909D
S11300B00D92AE30B107D9F712E0AEE0B1E001C065
S11300C01D92AE33B107E1F70E94A3120C943F18BE
S11300D00C9400008FB7F894992708958FBF089562
S11300E08FB7F89499272BB332E023272BBB8FBF0C
S11300F00895FC0182819927582F442781819927EB
S1130100482B592BCA01892F992786958695837088
S113011090708230910559F08330910559F0892B04
S113012019F420E030E008C02CE93FEF05C022E0DC
S113013030E002C028E030E0CA0184E0989F812DBD
S1130140992711248230910559F08330910559F093
S1130150892B19F480E090E008C08CE99FEF05C07A
S113016082E090E002C088E090E0280F391F2A5F07
S11301703F4FCF01820F931F0895282F9FB7F89404
S1130180662349F0E82FFF27EC53FE4F8081882334
S113019011F021E006C0E22FFF27EC53FE4F6083ED
S11301A020E0892F99278FBF822F99270895E82F60
S11301B08FB7F894282F332790E0FF27EC53FE4F96
S11301C08081861709F491E02FBF892F992708951C
S11301D0882311F06E9A08956E980895882311F07B
S11301E06F9A08956F98089580E00E94E800BA9A83
S11301F0BB98B99AB89A6C9A80E00E94EE006B980A
S11302006A9881E00E94E800709A8DB18C7F8DB964
S113021008950F931F93CF93DF93182F8FB7F894FC
S1130220C82FDD270C2F61E080E00E94BD008823E9
S113023021F0CFBF85E090E024C0809105018823A0
S1130240A1F480911301823081F409C082E080938B
S11302501301109205010E94F400B89AC0981093FB
S1130260020180E00FBF99270CC0809113018823FD
S113027069F38FB7F89499271092C4018FBF81E076
S1130280F1CFDF91CF911F910F910895282F9FB740
S1130290F894E82FFF27E95CFE4F80818F3F81F4BB
S11302A0E0913C02E21771F40BC020932E0204C0CB
S11302B0FF27E95CFE4F208320933C0220E007C027
S11302C025E005C080912E028F3F91F7EECF892F54
S11302D099278FBF822F992708951F93182F81E0A4
S11302E00E94E8001FB9779BFECF8FB199271F9119
S11302F008958F929F92AF92BF92CF92DF92EF9226
S1130300FF920F931F93CF93DF938FB7F89499279E
S1130310C0903702D09038028090BD019090BE0109
S1130320C091A501D091A60120911C0130911D011D
S1130330EAE0AE2EB12CAC0EBD1E2A153B0508F426
S113034059018FBF7401EC0EFD1E86010C0F1D1F99
S113035014C0C114D10419F0F801808101C080E0F7
S11303600E946D018114910411F0F701808321969C
S11303700894E11CF11C0F5F1F4FC5010197C817BA
S1130380D90738F381E00E94EE009FB7F894C114B6
S1130390D10431F0CC0EDD1EF60180818FB901C08D
S11303A01FB8D093A601C093A501892F99278FBFA9
S11303B080E090E0DF91CF911F910F91FF90EF903B
S11303C0DF90CF90BF90AF909F908F9008952FB7FC
S11303D0F894332750931D0140931C0190933802E5
S11303E0809337027093BE016093BD011092A60101
S11303F01092A5012FBF452B29F08FB10E947901DE
S11304009927089587E00E94460180E090E00895CE
S11304108FB7F89499271092C6018FBF08957FB7BC
S1130420F89462B720911F0130912001409121017D
S11304305091220106B601FE0FC081B792B7280F72
S1130440311D411D511D2F5F3F4F4F4F5F4F290FEE
S1130450311D411D511D04C0260F311D411D511D6B
S1130460872F99278FBFCA01B9010895DF92EF92B0
S1130470FF920F931F938FB7F894282F3327D22E10
S113048091B782B746B7981711F041FF02C02FBF4A
S11304906AC08091A4018823E1F10E940F02E090D8
S11304A0C001F090C1010091C2011091C3012091DB
S11304B031013091320140913301509134016E1970
S11304C07F09800B910B621773078407950720F04F
S11304D01092A40171E01EC02E0D3F1D401F511F3C
S11304E080911F0190912001A0912101B0912201DE
S11304F0281B390B4A0B5B0B273E3105410551057F
S113050040F4822F223010F070E005C070E082E0E9
S113051002C070E086EE682F615000B601FCFDCF8A
S113052082B7681709F46F5F20911F013091200191
S11305304091210150912201DA01C9010196A11DC6
S1130540B11D860F911DA11DB11D82179307A4072C
S1130550B50710F4622F609561BFDFBE772319F0F1
S11305608AE00E9446011F910F91FF90EF90DF9067
S11305700895AFB7F894BB27E1E0E093A40160933A
S1130580C0017093C1018093C2019093C301209371
S11305903101309332014093330150933401AFBFA2
S11305A00E943602089580E880933501109250012C
S11305B01092310210922D0210924C010895CF93A3
S11305C0DF93FC0115A6DC019E96ED011B821A82C5
S11305D0198280E886A7DF91CF9108952F923F92E8
S11305E04F925F926F927F928F929F92AF92BF923F
S11305F0CF92DF92EF92FF920F931F93CF93DF93EB
S1130600CDB7DEB728970FB6F894DEBF0FBECDBFC7
S11306102090560130905701409058015090590154
S1130620662477248824BEE4AB2EA3E8BA2ECC2417
S1130630DD24EE24FF2400E010E0222D332D442D90
S1130640552D662D772D882D90E00E942116298343
S11306503A834B835C836D837E838F839887822E5A
S1130660932EA42EB52E2401350100E20E941F17FB
S1130670A22EB32EC42ED52EC301B2019695879512
S1130680779567956A0D7B1D8C1D9D1D97FF05C091
S11306909F776F5F7F4F8F4F9F4F6093560170938B
S11306A05701809358019093590128960FB6F894F6
S11306B0DEBF0FBECDBFDF91CF911F910F91FF9091
S11306C0EF90DF90CF90BF90AF909F908F907F90EE
S11306D06F905F904F903F902F9008958FB7F8944C
S11306E06091A9017091AA012CB53DB506B602FE30
S11306F004C06F5F7F4F2CB53DB599278FBF882706
S11307009927CB017727662744275527622B732B1C
S1130710842B952B0895EF92FF920F931F930E94C1
S11307206E037B018C012091600130916101409145
S113073062015091630180915B0190915C01A091F1
S11307405D01B0915E01820F931FA41FB51FE216D5
S1130750F3060407150730F082179307A407B507BB
S113076058F005C082179307A407B507E0F5E8160B
S1130770F9060A071B07B8F59C01AD012E193F09BC
S1130780400B510B213060E8360760E0460760E01B
S1130790560768F180E090E8A0E0B0E0E80EF91EAA
S11307A00A1F1B1FE0926001F09261010093620135
S11307B01093630180E090E8AFEFBFEFE80EF91EFD
S11307C00A1F1B1F205030484040504020935B01BB
S11307D030935C0140935D0150935E0120E030E86A
S11307E040E050E014C020E030E040E050E080936E
S11307F0600190936101A0936201B0936301109230
S11308005B0110925C0110925D0110925E01A901DE
S1130810B7012CB53DB5C9018E199F0903968417FC
S1130820950720F0B9016D5F7F4F02C0640F751FFB
S11308306115710511F461E070E0615070407BBD99
S11308406ABD80E186BF87B7806187BF1F910F9122
S1130850FF90EF9008950F931F930FB7F89411270B
S113086060936001709361018093620190936301CE
S113087020935B0130935C0140935D0150935E01D2
S11308800E948B030FBF1F910F910895CF92DF92A7
S1130890EF92FF920F931F93CF93DF938C01F62E69
S11308A06A01E22E8FB7F894C82FDD2760E080E05C
S11308B00E94D700882321F0CFBF80E090E01EC0C3
S11308C0CFBF0F0D111D802F80680E946D01F82E7F
S11308D016950795802F807C0E946D010E2D0AC00D
S11308E0EE2DFF27E01BF109EC0DFD1D80810E9418
S11308F06D0101500023A1F78F2D9927DF91CF912E
S11309001F910F91FF90EF90DF90CF90089597B7CC
S11309109F7D97BF90E296BF882319F08EB58064BF
S113092002C08EB58F7B8EBD87B7806287BF80E0A3
S113093090E00895AF92BF92CF92DF92EF92FF9230
S11309400F931F93CF93DF93CDB7DEB728970FB6DE
S1130950F894DEBF0FBECDBF20E070E0E09100014F
S1130960F091010132E14DE65CE46FE48091010114
S11309709E2F28960FB6F894DEBF0FBECDBFDF9131
S1130980CF911F910F91FF90EF90DF90CF90BF9088
S1130990AF9008951F920F920FB60F9211248F9368
S11309A083B783BF00B600FCFDCF8F910F900FBEBD
S11309B00F901F90189578941F920F920FB60F9274
S11309C011240F900FBE0F901F90189578941F92CA
S11309D00F920FB60F9211240F900FBE0F901F901D
S11309E0189578941F920F920FB60F9211242F939B
S11309F03F938F939F932FB7F89433278091A90146
S1130A009091AA0101969093AA018093A9012FBF06
S1130A109F918F913F912F910F900FBE0F901F9038
S1130A2018951F920F920FB60F9211240F900FBEBC
S1130A300F901F9018951F920F920FB60F921124CA
S1130A400F900FBE0F901F9018951F920F920FB624
S1130A500F9211240F900FBE0F901F9018951F92A4
S1130A600F920FB60F9211240F900FBE0F901F908C
S1130A7018951F920F920FB60F9211240F900FBE6C
S1130A800F901F9018951F920F920FB60F9211247A
S1130A900F900FBE0F901F9018951F920F920FB6D4
S1130AA00F9211240F900FBE0F901F901895CF93A3
S1130AB0DF93CDB7DEB72C970FB6F894DEBF0FBE29
S1130AC0CDBF8FB7F894282FAE014F5F5F4FDA0187
S1130AD0EAECF1E088E001900D928150E1F7809119
S1130AE05101909152018987892F99278A87809192
S1130AF09801909199018B87892F99278C872FBF13
S1130B002CE060E080E691E00E9446042C960FB64B
S1130B10F894DEBF0FBECDBFDF91CF9108951F9231
S1130B200F920FB60F9211242F933F934F935F931D
S1130B306F937F938F939F93AF93BF93EF93FF93A1
S1130B4083B783BF00B600FCFDCF81B79927019618
S1130B50AA27BB2720911F01309120014091210138
S1130B6050912201280F391F4A1F5B1F20931F0138
S1130B7030932001409321015093220178940E94E4
S1130B803602FF91EF91BF91AF919F918F917F9129
S1130B906F915F914F913F912F910F900FBE0F90E6
S1130BA01F9018950F931F93182F0FB7F89461E0B7
S1130BB080E00E94BD00882371F5109302018091AA
S1130BC005018823A9F580911301823089F586E017
S1130BD00CC00E94F40080911301882349F481E041
S1130BE08093130110924D0188E00E9446012AC0AF
S1130BF080915F018F3F31F5E0910401EE2311F103
S1130C001CC01092030104C0FF27E15AFE4F10825A
S1130C101092040117C081E090E002C0880F991F70
S1130C201A95E2F720911201282B209312010AC091
S1130C30809113018823E1F6CCCF809103018F3F8B
S1130C4019F7DFCF802F99278FBF80E090E01F91A5
S1130C500F9108951F9383E00E9409019927182F8B
S1130C60882319F083E00E94D205812F99271F91D0
S1130C7008951F93CF93DF93182F8FB7F894C82F3D
S1130C80DD2760E080E00E94D700882321F0CFBFF9
S1130C9080E090E005C0CFBF812F0E946D019927AD
S1130CA0DF91CF911F910895EF92FF920F931F93BD
S1130CB0CF93DF93182F7B01042F8FB7F894C82F9D
S1130CC0DD2760E080E00E94D700882321F0CFBFB9
S1130CD080E090E014C0CFBF1064812F99279093D7
S1130CE09D0180939C010E946D01182F402F552770
S1130CF0B70180E090E00E94E701812F9927DF91FE
S1130D00CF911F910F91FF90EF900895C09860913B
S1130D101A0170911B0141E08FE30E94540608956B
S1130D2082E090E0909347018093460181E08093B4
S1130D30500120E030E080910201843011F421E080
S1130D4030E0232B29F484E00E940901882319F45C
S1130D500E948606089584E00E94D20508951F9299
S1130D600F920FB60F9211242F933F934F935F93DB
S1130D706F937F938F939F93AF93BF93EF93FF935F
S1130D808091460190914701019749F482E090E0F7
S1130D9090934701809346010E94900605C080917C
S1130DA04C018F5F80934C01FF91EF91BF91AF9104
S1130DB09F918F917F916F915F914F913F912F916F
S1130DC00F900FBE0F901F9018951F9380911201E2
S1130DD0882309F04BC0109102011F3F09F046C05F
S1130DE060E00E94D700882309F440C081E080932A
S1130DF0D301809136018823E1F11092D30185E07B
S1130E0090E045C0923069F5C09A8091030120E0DA
S1130E1030E08F3F11F421E030E0232BE9F410930C
S1130E2005018F3F19F42FEF30E00DC0282F332731
S1130E30F901E15AFE4F8081809303018F3F11F441
S1130E4010930401108320934D0181E080931301DA
S1130E5088E00E94460105C0109305011092130119
S1130E6011C080911301882369F00FC081E090E0E4
S1130E700EC08091050190911301882319F29230DC
S1130E8021F0EFCF80E00E94E80080E090E01F9125
S1130E9008951F93CF93DF939FB7F894C92FDD274D
S1130EA01C2F90910201981721F0CFBF81E090E0B0
S1130EB03AC08FEF80930201309112013323F1F491
S1130EC08FB7F89499271092C4018FBF0E94E5064A
S1130ED0CFBF11C02093020181E090E002C0880FCF
S1130EE0991F4A95E2F7809538233093120186E0E2
S1130EF00E9446011FBF80E090E015C080E065E0DD
S1130F00E32FFF270E94A217292F492F5527CF012E
S1130F10042E02C0959587950A94E2F780FDDACFF6
S1130F20822F8F5FEFCFDF91CF911F9108951F9391
S1130F30CF93DF938FB7F894C82FDD271C2F8091B0
S1130F40460190914701892B29F484E00E944907C6
S1130F50CFBF1EC01092500180914C01882311F024
S1130F60B79904C00E9908C0882319F08150809362
S1130F704C010E9490060BC081E090E090934701E1
S1130F808093460110924C0184E00E9449071FBFE0
S1130F90DF91CF911F9108950E94D302C09AC09807
S1130FA088E00E94390688E00E943906C09A84E0ED
S1130FB00E9449070E9497070895FF920F931F9379
S1130FC0CF93DF93F82E8B018FB7F894C82FDD27CA
S1130FD060E080E00E94D700882321F0CFBF80E04A
S1130FE090E00CC0CFBF8F2D0E946D01812F9927F7
S1130FF00E946D01802F0E946D019927DF91CF918E
S11310001F910F91FF9008951F931FB7F89480913B
S11310104B01882319F460E070E009C060E080911E
S11310203602882309F461E081E0682777278091FC
S11310305301882319F480E090E00AC090E0809185
S1131040C901882309F491E081E09827892F992721
S1131050762F6627770F770F770FF4E0880F991FA5
S1131060FA95E1F7826E9262682B792B81E10E94F6
S1131070DD07812F99278FBF1F9108958FB7F894AB
S113108099276091D2018FBF85E0689FB001112438
S1131090625D7E4F706488E10E94DD070895EF92DF
S11310A0FF921F93CF93DF93E0905401F09055018A
S11310B0F70182A59927182F882309F41FE1C09806
S11310C080914A01811749F0612F77276F71707001
S11310D0606E706885E10E94DD0710934A01F70194
S11310E010818FB7F894C82FDD2760E080E00E945C
S11310F0D700882311F0CFBF12C0CFBF8EE390E09A
S113110090939D0180939C018EE30E946D01115088
S1131110412F552760E070E0C7010E94E701DF918D
S1131120CF911F91FF90EF9008950F931F93CF934A
S1131130DF93EC010FB7F89411270E947900FC01AA
S11311408FE380830FBF109234021092330261E068
S113115082E00E94BD00882319F085E090E072C00F
S11311608091D4018F5F8093D40181508B838FB79A
S1131170F894082F112762E081E00E94D7008823A9
S113118029F40FBF0E94080281E05BC08FB7F89476
S1131190992724E02093C5018FBFD093A301C09366
S11311A0A2010FBFFE013196818129819927982FD1
S11311B088273327822B932B80729C7C8983892FE9
S11311C0992781832981982F882733272164822BAB
S11311D0932B8983892F992781831CA618A619A686
S11311E019AA18AA1FA680E88EA761E06093C80117
S11311F04091A2015091A3018FB7F894282F33276F
S113120080911401909115018830910511F0019796
S113121011F02FBF15C082E090E0909315018093E8
S1131220140160933D025093550140935401109270
S11312301E012FBF0E942A06882311F40E944F0822
S113124080E09927DF91CF911F910F910895CF935B
S1131250DF93DA01422F2D3118F082E090E05EC076
S1131260ED018B876E83872F99278F832FB7F8948F
S1131270332780915101909152012FBFFD01848346
S1131280892F992785832FB7F894332780910601F6
S1131290909107012FBF8887892F992789873196D5
S11312A0818129819927982F8827332720643868DA
S11312B0822B932B8983892F99278183435F4C93B6
S11312C04D5080910901882359F010920901642F2F
S11312D0CD010E9495089927282F8823A9F417C0C7
S11312E0842F99279093A1018093A001B0931901B1
S11312F0A09318018CE00E94460180910901882383
S113130049F489E090E00AC08FEF80930901822FAD
S1131310992704C010925A0180E090E0DF91CF91A8
S11313200895AF92BF92CF92DF92EF92FF920F9304
S11313301F935B016C016091B30161FF20C0209198
S1131340AB013091AC014091AD015091AE01E09000
S1131350AF01F090B0010091B1011091B201D6013A
S1131360C501821B930BA40BB50B8E159F05A0071B
S1131370B10728F0A0E0B0E0EBEAF1E022C0E4EB32
S1131380F1E06091BC0161FF6BC02091B401309128
S1131390B5014091B6015091B701E090B801F090C9
S11313A0B9010091BA011091BB01A21AB30AC40A8F
S11313B0D50AAE14BF04C006D10608F451C0A1E09A
S11313C0B0E060FF04C080858D7F808708C02E0D4B
S11313D03F1D401F511F2083318342835383A1301B
S11313E009F03EC080910001909101018093710148
S11313F0892F99278093700144E651E08FEF809301
S11314006A0180936B018AE080936F018091A70148
S11314109091A801892BE1F45093A8014093A7016E
S113142089E18093640180910C01882389F01092F2
S11314300C012CE06FEF7FEF8AE00E9427098823DC
S113144039F081E080930C011092A8011092A70159
S11314508FB7F89499272BB331E023272BBB8FBF89
S11314608BE00E9446011F910F91FF90EF90DF9057
S1131470CF90BF90AF9008951F93182FE82FFF27A8
S1131480EE0FFF1FE955FE4F1182108210920C01DE
S1131490E091A701F091A801309721F080913202E8
S11314A080FF0CC081E080930C0103C08EE00E9499
S11314B046011123A9F40E94700012C020812D500E
S11314C0332767817727762F662786819927682BAC
S11314D0792BAF0183850E942709882351F3E6CF36
S11314E01F9108959B0180910C01882349F4609118
S11314F0A7017091A8016217730711F40E943C0AB6
S113150008951F93182F81E090E090931501809324
S11315101401109236010E94E5068FB7F8949927BA
S113152010930E018FBF82E00E9446011F9108951F
S1131530CF92DF92EF92FF920F931F93CFB6F8945E
S1131540DD240E94EE02DC01CB0166E470E00E941F
S1131550AE177BE0E72EF12CE80EF91EF0923A026A
S1131560E09239020E946E0300271127A801970117
S11315700E942B04CFBE1F910F91FF90EF90DF903C
S1131580CF9008951F93CF93DF938FB7F894C82F0C
S1131590DD271C2F80911401909115010897C9F43F
S11315A089E00E94390683E00E944907C09A81E0DD
S11315B090E090931501809314018FB7F8949927C4
S11315C023E020930E018FBF82E00E944601CFBF2B
S11315D030C0C09880913D02882311F085E001C09D
S11315E084E00E94390683FD09C080E00E94390628
S11315F083FF04C085E090E020E003C083E090E036
S113160021E09093150180931401C09A1FBF2223F7
S113161041F010921E0183E00E9449070E94980A3B
S113162008C00E946E0320E431E040E050E00E94D4
S11316302B04DF91CF911F91089578941F920F92FC
S11316400FB60F9211241F932F933F934F935F93E1
S11316506F937F938F939F93AF93BF93EF93FF9376
S113166087B78F7E87BF78941FB7F89480915B010A
S113167090915C01A0915D01B0915E010097A1057C
S1131680B10509F051C08091140190911501853084
S1131690910561F18630910530F48330910549F06C
S11316A0049781F51AC087309105F1F0089751F538
S11316B014C0869B0FC084E090E090931501809342
S11316C014010E946E0327E030E040E050E00E94E5
S11316D02B0418C00E94980A15C00E942A06882369
S11316E089F40E94C20A0EC080E00AC089E00E9408
S11316F0390681E00E94870483E00E94490787E05D
S11317000E94810A80910F0190911001019771F458
S113171082E090E09093100180930F01DE98DE9AAE
S113172080E00E94D20502C00E948B03812F99277A
S11317308FBFFF91EF91BF91AF919F918F917F9157
S11317406F915F914F913F912F911F910F900FBE19
S11317500F901F901895EF92FF920F931F93CF93C2
S1131760DF938B0180919C0190919D0186FF40C184
S11317708F7B8F3309F08EC1C0911A01D0911B0168
S113178058815093480180914601909147018530DA
S1131790910509F443C08630910509F48AC0029783
S11317A009F01FC185E090E09093470180934601C2
S11317B040913501852F99270196242F3327281727
S11317C039074CF1B79906C00E9904C0451B415026
S11317D040933501409148014A32E8F44423A1F092
S11317E0BE016F5F7F4F483018F047E050E007C0FC
S11317F086E090E09093470180934601552780E06E
S113180090E00E94E70146C110925001C09A84E022
S11318100E944907E3C00E94CC073CC186E090E0E7
S1131820909347018093460180915301882309F4E2
S113183039C08091C9018823A9F5898185FF32C007
S11318408F814E812FB7F89433276091980170915E
S113185099012FBF9927982F88275527842B952BDB
S11318608617970759F08F812E819927982F8827FB
S11318703327822B932B8F5F9F4FA1F4898187702D
S1131880813081F4C09AC0988AE00E943906C09AD7
S1131890C0984091480147502896BE018FE30E94AA
S11318A05406F8C040914801475055272896BE0178
S11318B0A6CFC09A80914C01882339F484E00E9419
S11318C0490780914C01882311F0B7990AC00E9BF7
S11318D008C090912D02992321F0809148018B300A
S11318E038F480911A0190911B010E94DF023DC0DF
S11318F0913001F5E0913102FF27EE0FFF1FEE0F4B
S1131900FF1FE752FE4F2081318142815381E091D4
S11319101A01F0911B0121ABBB27A52F942F832F14
S113192080ABCA01AA27BB2787A7252F33274427C3
S1131930552726A7809131029927019668E070E027
S11319400E94C2178093310280912D0281508093AE
S11319502D02882351F080911A0190911B010E945D
S1131960DF021092310210922D0280914801FE0193
S1131970E80FF11D808187FF31C0012B79F1698166
S11319806770E0911A01F0911B01623019F5A09182
S11319905401B0915501109709F18091140190916F
S11319A015010797D9F4ED019B8183819817B1F450
S11319B087B78F7E87BF908181E08CA7E90FF11DE7
S11319C08291319688A780818F7789A780E00E94D1
S11319D0810A04C0613011F489E02AC00E9497078B
S11319E059C010925001C09A84E00E94490752C025
S11319F08E3309F04FC0C09A809114019091150163
S1131A000897C9F4C09889E00E943906C09A83E017
S1131A100E94490781E090E090931501809314019E
S1131A208FB7F894992723E020930E018FBF82E0AB
S1131A300E9446012FC080913D02882349F484E02E
S1131A4090E090931501809314010E94C20A22C071
S1131A5083E00E94490783E090E09093150180930E
S1131A6014010E94EE02DC01CB0166E371E00E94E6
S1131A70AE17EBE0EE2EF12CE80EF91EF0923001D9
S1131A80E0922F010E946E0300271127A8019701FD
S1131A900E942B04DF91CF911F910F91FF90EF9043
S1131AA008951F920F920FB60F9211242F933F9314
S1131AB04F935F936F937F938F939F93AF93BF9352
S1131AC0EF93FF932FB1E091BD01F091BE013097E8
S1131AD039F08091A5019091A601E80FF91F2083A8
S1131AE08091A5019091A60101969093A6018093FF
S1131AF0A50180E00E94EE0040911C0150911D015F
S1131B008091A5019091A6018417950718F40E946D
S1131B1079011CC06091BD017091BE0180913702B2
S1131B20909138021092BE011092BD0110923802B9
S1131B301092370210921D0110921C011092A601FE
S1131B401092A5012FB120E00E94AB0BFF91EF9101
S1131B50BF91AF919F918F917F916F915F914F91C1
S1131B603F912F910F900FBE0F901F901895AF9239
S1131B70BF92CF92DF92EF92FF920F931F93CF9376
S1131B80DF93CDB7DEB7A8970FB6F894DEBF0FBECC
S1131B90CDBF873009F40AC2883098F4833009F441
S1131BA0EDC0843038F4813009F491C0823008F0FB
S1131BB094C024C0853009F403C1863008F03BC1C9
S1131BC0F8C08B3009F4BEC38C3038F4893009F482
S1131BD024C28A3008F083C30CC28D3039F08D30B2
S1131BE008F430C48E3009F080C472C4809132028B
S1131BF0882309F47AC420E011E04CC40FB7F894A8
S1131C00112781E00E948704F1E0EF2EF12CF0927D
S1131C101501E092140110921601109236011092EF
S1131C204A010FBF0FB7F89411270E94D302F09214
S1131C304701E09246011092500189B78F7B89BF1A
S1131C4080E488BF8AB780628ABF8AB78F7E8ABFE2
S1131C5089B7806489BF0FBF8FB7F894082F112705
S1131C6080910F0190911001049719F483E00E9470
S1131C7039060FBF0FB7F8941127C09A80E00E946D
S1131C8049070FBF8FB7F894992722E02093C50125
S1131C908FBF0E940F026093B4017093B5018093CB
S1131CA0B6019093B70188EE93E0A0E0B0E0809392
S1131CB0B8019093B901A093BA01B093BB0180918C
S1131CC0BC018E7F82608093BC018BE0B1C08FB772
S1131CD0F89499271092C50171C08FB7F894992789
S1131CE0F0900E018FBF63E081E00E94D70088234B
S1131CF059F10FB7F894112710921501109214019D
S1131D0087B78F7E87BF87B78F7D87BF83E00E94A9
S1131D104907C09A0FBF0FB7F894112710924701D3
S1131D20109246010E94D302C09A89B78F7B89BF63
S1131D300FBF1092100110920F01DE98DD98DE9A09
S1131D4081E00E94460107C08FB7F894992722E0EA
S1131D502093C5018FBF0091A2011091A3010E949D
S1131D6008028091330290913402892B09F0BDC39B
S1131D708FEF809309014F2DB80183C38FB7F89477
S1131D80282F3327122F80913B02882309F581E005
S1131D9080933B0280910F0190911001049721F4EC
S1131DA081E00E94D20503C084E00E9446011FBF67
S1131DB09CC38FB7F894992710923B028FBF95C3A9
S1131DC08FB7F894282F332780911101882311F0BD
S1131DD02FBF8BC32FBF80B39927E6E096958795D5
S1131DE0EA95E1F7182F117090919A0180919B0167
S1131DF08917D9F01917C9F484E090E09093100181
S1131E0080930F018FB7F894992721E02093110153
S1131E108FBF60E070E08DE10E94DD070E945705EE
S1131E20C09AC09880E00E94460110939B0185E00F
S1131E300E9446015AC38FB7F89499271091020162
S1131E408FBF123009F465C0133030F4112359F0F8
S1131E50113009F04AC348C0133009F474C0143077
S1131E6009F043C3A0C0C0988FB7F894082F112776
S1131E7080910F01909110010297A1F583E090E009
S1131E809093100180930F0168E170E08DE10E944E
S1131E90DD0781E080939A011092110180B39927A4
S1131EA076E0969587957A95E1F7817090708093A6
S1131EB09B0185E00E94460181E00E9439066FE79C
S1131EC072E08CE10E94DD070E943E080E94040833
S1131ED066E57AE287E10E94DD076FEF70E885E14D
S1131EE00E94DD070FBF01C3C09886E00E94390637
S1131EF00E943E080E9404080E945705C09AC09898
S1131F0083E00E943906C09A81E00E94490784E078
S1131F108FCFC0988FB7F894082F112760E080E026
S1131F200E94D700882311F00FBF0AC00FBF83E5BA
S1131F300E946D0180E00E946D0180E00E946D01AD
S1131F40C09A82E02DC08FB7F8949927209114018C
S1131F508FBF243039F0283041F0223001F50E943F
S1131F604F08C3C20E94C20AC0C2C09889E00E943E
S1131F703906C09A83E00E9449078FB7F8949927DD
S1131F8021E030E030931501209314018FBF8FB707
S1131F90F894992710930E018FBF82E049CF83E014
S1131FA00E944907A2C20E9486069FC20FB7F894F6
S1131FB0112740911C0150911D016091BD01709148
S1131FC0BE0180913702909138021092BE011092A6
S1131FD0BD01109238021092370210921D01109226
S1131FE01C011092A6011092A50120E00E94AB0BE7
S1131FF079CF2FB7F894332780914D018093050151
S113200082E0809313012FBF80910501882309F09A
S11320106CC2B89AC09886E00BCFA0911A01B09117
S11320201B011C919D01210F311DF9018081881F25
S11320308827881FFD0183A7F90180818F77FD011F
S113204081A721503040F9018081FD0180A7A09132
S11320501A01B0911B01FD0132818FB7F8949927C1
S113206020914B018FBF222309F490C0832F99271D
S11320709695879596958795837090708230910593
S113208041F5878146812FB7F894332760919801F1
S1132090709199012FBF9927982F88275527842B52
S11320A0952B8617970719F481E090E06CC0FD0129
S11320B08781268140E050E09927982F882733278D
S11320C0822B932B8F5F9F4F11F441E050E0CA01A4
S11320D05AC0039709F0FAC09E012F5F3F4F4AECA4
S11320E051E088E0FA010190AF01F90101929F01EA
S11320F08150C1F79E012F5D3F4FAE014F5F5F4F8F
S113210088E0FA010190AF01F90101929F01815029
S1132110C1F79E01275F3F4FAE014F5D5F4F88E0DF
S1132120FA010190AF01F90101929F018150C1F7B9
S11321309E012F5E3F4FAE01475F5F4F88E0FA017B
S11321400190AF01F90101929F018150C1F79E01F5
S1132150275E3F4FAE014F5E5F4F88E0FA0101906A
S1132160AF01F90101929F018150C1F748E050E0AD
S1132170BE01675E7F4FCD0106960E942B18892B06
S113218009F0A4C003C0882309F4A0C01D3008F4DA
S11321909DC0E0901A01F0901B01F7012281822F6B
S11321A0992706E0969587950A95E1F7039719F420
S11321B068E070E002C062E070E0822F9927969593
S11321C087959695879583709070039719F488E0A6
S11321D090E002C082E090E026E030E0E20EF31EE0
S11321E040E050E020E030E0F701E80FF91F8AEF0B
S11321F09FEFE80EF91E05C08191480F511D2F5F16
S11322003F4F26173707C4F3F70163818FEF80939D
S113221035028FB7F894782F20E030E0E3E2F1E064
S1132220808191818417950729F48281861731F181
S1132230209335022F5F3F4F33962430310581F7C9
S11322407FBF909135023FB7F8949F3F21F0809172
S113225017018917A9F420911701822F9927FC01EE
S1132260EE0FFF1FE80FF91FED5DFE4F5183408312
S113227062832F5F2370209317010EC07FBF22C09B
S1132280892F9927FC01EE0FFF1FE80FF91FED5D61
S1132290FE4F518340836283832F99278FBF0FB7EB
S11322A0F8941127C7010E947900FC0190810FBFA7
S11322B0F70183A5882331F09F3321F48FB7F89475
S11322C099278FBFF0921B01E0921A018FB7F894FF
S11322D09927109250018FBF0E94970706C18091E1
S11322E04901882361F52091D5013091D6014091AF
S11322F0D7015091D801EFB7F894FF276091C0013E
S11323007091C1018091C2019091C301E0903101AB
S1132310F090320100913301109134016E0D7F1D54
S1132320801F911FEFBF2093D5013093D6014093B6
S1132330D7015093D801109249010E94B9020E941A
S11323400F026DC00E940F025B016C018FB7F894FD
S113235099271092A4018FBF8091B30181FF25C0FA
S11323608091AB019091AC01A091AD01B091AE010F
S1132370A6019501281B390B4A0B5B0BE090AF01BA
S1132380F090B0010091B1011091B201E21AF30A88
S1132390040B150B3FEFE3163FEFF3063FEF030784
S11323A03FE7130711F061E009C0EFEFEE2EEFEF06
S11323B0FE2EEFEF0E2FEFE71E2F60E08091BC01A1
S11323C081FF21C08091B4019091B501A091B60123
S11323D0B091B701A6019501281B390B4A0B5B0B81
S11323E0DA01C9012091B8013091B9014091BA01D3
S11323F05091BB01281B390B4A0B5B0B2E153F0573
S1132400400751072CF0662309F46FC0A801970117
S113241012161306140615062CF0C601B5010E9407
S1132420910963C02093D5013093D6014093D7011D
S11324305093D80181E080934901C601B5010E94FF
S1132440B90253C090915A0180910901981709F477
S11324504CC0909309019923C9F40091180110917B
S113246019016091A001C8010E949508482F5527C1
S11324704423D9F18FEF8093090160911801709181
S11324801901F80183850E94720A2FC08FEF80938F
S113249009012BC090913202812F8923A1F0E22FF0
S11324A0FF27EE0FFF1FE955FE4F11821082812F87
S11324B08095982390933202222329F40E9470007D
S11324C0110F21E0E7CF2F5F283078F4110FE2CF0E
S11324D080910C01E82FFF27EE0FFF1FE955FE4FF7
S11324E06081718141E00E943C0AA8960FB6F8947D
S11324F0DEBF0FBECDBFDF91CF911F910F91FF9033
S1132500EF90DF90CF90BF90AF90089580912E020E
S11325108F3FB1F0282F3327F901E95CFE4F80810A
S113252080932E028F3F11F480933C028FEF8083BF
S11325302F3F31F0822F0E94B70D81E090E0089583
S113254080E090E008951F93CF93DF93CDB7DEB77B
S1132550E0970FB6F894DEBF0FBECDBF1FB7F89457
S11325604FE050E06FEF70E087E391E00E9438188D
S11325708FEF80932E0280933C0281E08EBD88E031
S113258080BF83E083BF8CB59DB54AE72CB53DB5CC
S11325902817390708F44150442311F0C901F6CF34
S11325A092B782B78917E9F32CB53DB592B782B7D4
S11325B08917E9F38CB59DB5821B930B4096A5E072
S11325C096958795AA95E1F79093300280932F0210
S11325D013BE83B78EBD8EB580BF12BE1DBC1CBC9E
S11325E08FEF86BF86B780937C0080B7992787706A
S11325F09070892BD1F7D29AD19AD09ADA9AD99A33
S1132600D89A15BA8FEF84BBD498DC981DBC1CBC37
S113261087B7846087BF8EB5887F84608EBD0E9433
S113262086128823E1F78FEF80934E01E3E2F1E015
S11326308FEF9FEF918380831282339621E0EF32F4
S1132640F207C1F70E94EE026093D4018091000169
S1132650909101010196AA27BB278093560190937C
S11326605701A0935801B093590180B7886080BF87
S11326708BE083BF86EE81BF87B7826087BF0E94ED
S1132680360289EF91E090931B0180931A018E9892
S1132690B89A8C988FEF80935F011092C4011092C6
S11326A0C5011092C6011092C701B89AD69AD59A5C
S11326B08FB7F894992720910601309107018FBFB5
S11326C030939901209398010E949A0429A73AA76C
S11326D04BA75CA76DA77EA78FA798ABDE01919649
S11326E0FE01B99688E001900D928150E1F7DE0178
S11326F05196FE01B19688E001900D928150E1F768
S1132700DE015996FE01719688E001900D92815088
S1132710E1F7AAECB1E0FE01799688E001900D9210
S11327208150E1F780910801992790935201809399
S113273051018FE18093BF018AE18093D2010E940D
S11327409A0429A73AA74BA75CA76DA77EA78FA7D2
S113275098ABDE019196FE01B99688E001900D9246
S11327608150E1F7DE011196FE01B19688E00190F7
S11327700D928150E1F7DE011996FE01319688E051
S113278001900D928150E1F7AAECB1E0FE01399677
S113279088E001900D928150E1F7AAECB1E0FD01CF
S11327A037969C9180818D939083319781E0ED3CA5
S11327B0F807B9F781E080934B01109236028093B9
S11327C053011092C9010E9486128823E1F7812FD8
S11327D099278FBF789461E081E00E94BD0088232F
S11327E0E9F48FB7F894282F332780910F01909143
S11327F01001892B11F02FBF1BC081E090E0909352
S1132800100180930F012FBFDD9A0E946E0324E113
S113281030E040E050E00E942B040AC062E081E016
S11328200E94D700882321F461E081E00E94D70050
S11328308FB7F894482F55274BC087B799278370D3
S11328409070892B19F4E5E0F0E013C080B7992764
S113285087709070892BD1F781B792B7891B8C3020
S113286030F082B7853F18F4E3E0F0E002C0E2E024
S1132870F0E087B7887BC1F480917D008B7FA1F461
S11328806E9912C08AB190919A00892B887161F473
S11328908091740082FD08C0379B03C081E090E002
S11328A005C085E090E002C080E090E025B78E1777
S11328B008F4E82FFF27E457FF4FE491237E2062BA
S11328C0E22BE5BF78948895F89485B78F7D85BF12
S11328D080912E028F3F09F4B0CF282F3327F901BE
S11328E0E95CFE4F808180932E028F3F11F4809328
S11328F03C028FEF80832F3F09F49FCF4FBF822F7D
S11329000E94B70D95CF78941F920F920FB60F9235
S113291011242F923F924F925F926F927F928F92E7
S11329209F92AF92BF92CF92DF92EF92FF920F935A
S11329301F932F933F934F935F936F937F938F9343
S11329409F93AF93BF93CF93DF93EF93FF93C6B55A
S1132950D7B58FB7F894282E0E946E039B012C1BC9
S11329603D0B442755272B013C01421A530A640AA4
S1132970750A80911401909115018530910521F01B
S1132980069709F0E0C0BFC086E090E0909315017F
S11329908093140131E0332E30924F0110921601CE
S11329A080E00E948704E0915401F091550141AA0E
S11329B0BB27A72D962D852D80ABC301AA27BB2746
S11329C087A7872D9927AA27BB2786A7E0915401BB
S11329D0F091550185A5882309F484C06081655070
S11329E077274F01860E971EF4012081E1808281B2
S11329F0A3809927AA27BB27BA2FA92F982F882706
S1132A00332744275527522F442733272227FF24CF
S1132A10002711278701FF24EE242E293F29402B6C
S1132A20512BBB24CC24DD242A293B294C295D29A4
S1132A30822B932BA42BB52B84199509A609B709CE
S1132A408383292F3A2F4B2F552722839D01442717
S1132A50552721838B2F9927AA27BB278083C098CA
S1132A6024E0A40180E090E00E944604C09AF401AE
S1132A702081E1808281A3809927AA27BB27BA2FCE
S1132A80A92F982F8827332744275527522F4427C7
S1132A9033272227FF24002711278701FF24EE2450
S1132AA02E293F29402B512BBB24CC24DD242A2959
S1132AB03B294C295D29822B932BA42BB52B840D08
S1132AC0951DA61DB71D8383292F3A2F4B2F5527FC
S1132AD022839D014427552721838B2F9927AA27D9
S1132AE0BB278083E0915401F0915501818185FFDA
S1132AF002C03092360183E00E94490787B78F7E77
S1132B0087BF84997AC010924F0181E00E948704A4
S1132B10E0915401F0915501818185FF0FC087E058
S1132B2090E090931501809314010E946E0320E0BD
S1132B3031E040E050E00E942B0403C080E00E949A
S1132B40810A849B5AC080911601882391F5809153
S1132B504F01882371F511E010934F010E948704FF
S1132B6080B320912D02283098F4E0913102E20FD5
S1132B70FF27E770F070EE0FFF1FEE0FFF1FE75205
S1132B80FE4F40825182628273822F5F20932D0216
S1132B9010931601D0939F01C0939E0184992DC078
S1132BA09927B4E096958795BA95E1F7182F117097
S1132BB001C010E080914F018130F9F410924F016F
S1132BC00E948704109216011123B9F480919E018A
S1132BD090919F01C81BD90B2A9778F480912D02FC
S1132BE0882319F0815080932D0280915401909193
S1132BF05501009711F00E94DF022FBEFF91EF9163
S1132C00DF91CF91BF91AF919F918F917F916F9100
S1132C105F914F913F912F911F910F91FF90EF90F2
S1132C20DF90CF90BF90AF909F908F907F906F90E8
S1132C305F904F903F902F900F900FBE0F901F907A
S1132C401895ACE2B0E0E7E2F6E10C94F417222E1A
S1132C50332E442E552E662E772E882E992EFE0165
S1132C603196A8E01192AA95E9F729823A824B821B
S1132C705C826D827E828F829886FE013996B8E0EE
S1132C801192BA95E9F7A986BA86CB86DC86ED86D9
S1132C90FE860F87188B89819A81AB81BC8189A7B5
S1132CA09AA7ABA7BCA77C018D018FEF9FEFA0E093
S1132CB0B0E0E822F9220A231B2389A59AA5ABA533
S1132CC0BCA51D014424552489859A85AB85BC8502
S1132CD08DA39EA3AFA3B8A75C016D018FEF9FEFF7
S1132CE0A0E0B0E0A822B922CA22DB228DA19EA1D5
S1132CF0AFA1B8A53D0188249924C801B701A60154
S1132D0095010E94D51769A37AA38BA39CA3C8013C
S1132D10B701A40193010E94D5177B018C01C20164
S1132D20B101A60195010E94D5175B016C01C20196
S1132D30B101A40193010E94D5173B014C01EA0C97
S1132D40FB1C0C1D1D1D89A19AA1ABA1BCA19D0159
S1132D50442755272E0D3F1D401F511F2A153B05A3
S1132D604C055D0540F480E090E0A1E0B0E0680E21
S1132D70791E8A1E9B1ECA01AA27BB27860D971D92
S1132D80A81DB91D8D8F9E8FAF8FB8A3A9013327BE
S1132D90222789A19AA1ABA1BCA1A070B070280F71
S1132DA0391F4A1F5B1F298F3A8F4B8F5C8FA98C69
S1132DB0BA8CCB8CDC8CED8CFE8C0F8D18A1FE01B3
S1132DC0719698E011929A95E9F7ED8AFE8A0F8B35
S1132DD0188F2D813E814F8158856DA17EA18FA1D1
S1132DE098A50E94D5173B014C012D853E854F8542
S1132DF0588969A57AA58BA59CA50E94D5172D890C
S1132E003E894F89588D260F371F481F591F260D9D
S1132E10371D481D591D2D8B3E8B4F8B588F6D8848
S1132E207E888F88988C2A2D3B2D4C2D5D2D662D08
S1132E30772D882D992DE2E1AC960C941018A0E121
S1132E40B0E0E5E2F7E10C94F417222E332E442E81
S1132E50552E662E772E882E992E002309F466C0EF
S1132E6088E0FE01319611928A95E9F729833A8325
S1132E704B835C836D837E838F829887E0E2E01BC3
S1132E801E16CCF52D813E814F815885602F772702
S1132E9067FD7095DA01C901062E04C0B695A795A1
S1132EA0979587950A94D2F78D879E87AF87B88BBD
S1132EB004C0220F331F441F551FEA95D2F789819E
S1132EC09A81AB81BC8104C0B695A79597958795E7
S1132ED06A95D2F7282B392B4A2B5B2B29873A8703
S1132EE04B875C8729843A844B845C846D847E841C
S1132EF08F8498881BC01D861E861F86188A2E2FD5
S1132F00332727FD3095309521953F4F8D819E8144
S1132F10AF81B88504C0B695A795979587952A95EE
S1132F20D2F789879A87AB87BC87DCCF222D332DD4
S1132F30442D552D662D772D882D992DE2E160962F
S1132F400C941018991B79E004C0991F961708F087
S1132F50961B881F7A95C9F780950895AA1BBB1BF9
S1132F6051E107C0AA1FBB1FA617B70710F0A61B85
S1132F70B70B881F991F5A95A9F780959095BC01A6
S1132F80CD01089597FB092E07260AD077FD04D0BA
S1132F90E5DF06D000201AF4709561957F4F0895FF
S1132FA0F6F7909581959F4F0895629FD001739F86
S1132FB0F001829FE00DF11D649FE00DF11D929FD1
S1132FC0F00D839FF00D749FF00D659FF00D992710
S1132FD0729FB00DE11DF91F639FB00DE11DF91F34
S1132FE0BD01CF01112408952F923F924F925F9219
S1132FF06F927F928F929F92AF92BF92CF92DF9205
S1133000EF92FF920F931F93CF93DF93CDB7DEB769
S1133010CA1BDB0B0FB6F894DEBF0FBECDBF0994FD
S11330202A88398848885F846E847D848C849B8454
S1133030AA84B984C884DF80EE80FD800C811B8162
S1133040AA81B981CE0FD11D0FB6F894DEBF0FBE91
S1133050CDBFED010895FB01DC0104C08D91019009
S1133060801921F441505040C8F7881B990B0895EA
S1133070DC0101C06D9341505040E0F70895FFCF4B
S11130800100FFFFFFFF010022FFFFFF010020
S9030000FC
